:020000040800F2
:1000000068210020293B0408753E04087D6501082D
:10001000793E04087D3E0408813E0408000000008B
:100020000000000000000000000000005154010822
:10003000853E040800000000F5530108AD350408B2
:10004000893E04088D3E0408913E0408953E04084C
:10005000993E04089D3E0408A13E0408A53E0408FC
:10006000A93E0408AD3E0408B13E0408B53E0408AC
:10007000B93E0408BD3E0408C13E0408C53E04085C
:10008000C93E0408CD3E040881EF0308D13E0408B0
:10009000D53E0408D93E0408DD3E04087575010804
:1000A000E13E0408E53E0408E93E0408ED3E04088C
:1000B000F13E0408F53E0408F93E0408FD3E04083C
:1000C000013F0408053F0408093F04080D3F0408E8
:1000D000113F04082DBA0308153F0408193F04080E
:1000E0001D3F0408213F0408253F0408293F040858
:1000F0002D3F0408313F0408353F0408393F040808
:100100003D3F0408413F0408453F0408493F0408B7
:10011000FD3F04084D3F040899900108513F040831
:10012000553F04084BBA0308593F04085D3F0408D3
:10013000613F0408653F0408693F04086D3F0408F7
:10014000713F0408753F0408793F04087D3F0408A7
:1001500037BA0308813F040841BA0308853F040801
:100160007F9E0108899E0108893F04088D3F04088D
:10017000913F0408D9450308953F0408000000009A
:10018000993F04089D3F0408A13F0408A53F0408C7
:10019000A93F0408AD3F0408B13F0408B53F040877
:1001A000955F0108B93F0408BD3F0408C13F04083A
:1001B000C53F0408C93F0408CD3F0408D13F0408E7
:0801C000D53F0408D93F0408F3
:020000040801F1
:1000000080B5DFF8600990F90000002816D15FF094
:10001000FF30DFF85019087000F011F800F010F907
:1000200001F0BEFC01F095FE00F089F803F015F830
:1000300001F0FCF802F05BFD01F052FF01BD7047DA
:1000400080B50121B0FBF1F003F0D3F801BD01212F
:10005000B0FBF1F0704710B50400012003F041FE41
:10006000206010BD10B504001000884200DA0100C5
:10007000A160606003F06FFE206010BD10B5040049
:100080000800A168491EA160FFF7E1FF02000023FC
:100090000021206804F02DF8012802D15FF0FF3024
:1000A00003E0A068401CA060002010BD10B5040053
:1000B00004F0CBFAA0686168884208DAA068401CA6
:1000C000A060002300220021206803F072FE5FF090
:1000D0008050DFF894180860BFF34F8FBFF36F8F25
:1000E00004F0D4FA10BD80B5002100918168426807
:1000F000914206DA8168491C81606946006803F014
:1001000097FF01BD00B585B00100180000230493DE
:10011000802900D28021002303930023029304ABA3
:1001200001930092069B0A0092B2DFF8401802F099
:100130009FFF012800D0FEE7049805B000BD70477E
:100140002DE9F04104000D0000263700DFF82008FB
:10015000D0F800800DE0D8F80400A04200D17F1C48
:10016000D8F8040000882188884200D1761CD8F88D
:100170000080B8F1000FEED1606804F009FB804602
:10018000B8F1000F01D1002030E061680022404644
:1001900004F036FCC8F80440A06800280CD03300F6
:1001A0003A0029004046A568A847002804D14046E7
:1001B00004F078FB002019E0DFF8B407006800289D
:1001C00005D0DFF8B0070068C0F8008003E0DFF872
:1001D000A007C0F80080DFF89C07C0F80080E06846
:1001E000002802D04046E16888474046BDE8F081DB
:1001F00010B40023DFF87827126801E05B1C126856
:10020000002A08D05468248880B28442F7D18B42F7
:10021000F4D1100000E0002010BC7047002901D08C
:10022000096804E0DFF84817096800E00968002958
:1002300004D04A68128880B28242F7D10800704721
:1002400070470021416041680160704780B500F04F
:1002500001F801BD00290BD000220A600268002AC3
:1002600003D141604168016002E042681160416071
:10027000704780B500F001F801BD00291BD002686D
:10028000002A18D002688A4204D10A68026000205D
:10029000086010E0026800E012681368002B0AD0C2
:1002A00013688B42F8D10B68136043688B4200D10E
:1002B00042600020086070472DE9FC4104000D00F9
:1002C0001600089FDDF82480CDF8048000979BB2CB
:1002D000320012B2290009B22000D4F818C0E04759
:1002E000C0B200280AD1CDF804800097238A3200DA
:1002F00012B2290009B22000A469A047C0B2BDE82B
:10030000F68110B5040089B2200062699047C0B23E
:10031000002803D1218A200062699047C0B210BD35
:10032000DFF85406704730B4002200E0521C90F809
:100330002A309A4214D2C36A0C2404FB023489B2D4
:100340002388CB1A258889B2A942EFD36588AB42AE
:10035000ECD2606830F81300A16880B2401800E069
:10036000002030BC7047F8B504000E00150016E000
:100370006088A188471A206900902B00DBB23A0000
:10038000D2B2B4F90610B4F90400D4F80CC0E047B6
:10039000FFB2F61B2088A080E088401CE080B4F902
:1003A0000400B6B23018B4F902108842E0DAB6B2EE
:1003B000002E0ED0206900902B00DBB23200D2B2AA
:1003C000B4F90610B4F90400E568A847A08830180D
:1003D000A080F1BD82888918818008E081884288E8
:1003E000891A028851188180C188491CC180B0F9DE
:1003F0000410B0F902209142F0DA70472DE9F04183
:1004000004000D00606AD2B230F81260606AD2B2A5
:1004100010EB42004088871B5FF0000814E0C0B278
:1004200010F0C001C0290DD1C0F30111491C10F01A
:100430000F00112210FB02F2D2B2C9B289B2280019
:10044000FFF791FF18F101081FFA88F8BFB2B8450D
:100450002FD2206A1FFA88F818FA86F1085CC021AA
:10046000084206D1C0B210F03F012800FFF7B2FFEA
:10047000E8E7C0B210F0C00140290BD1C0B210F0C3
:100480003F00401C402110FB01F189B22800FFF71A
:10049000A1FFD7E7C0B210F0C0018029BFD1FF2271
:1004A000C0B210F03F00411C89B22800FFF75BFF8B
:1004B000C8E7BDE8F081C0B2FC2801DB022014E0EF
:1004C000C0B2F42801DB03200FE0C0B2E42801DB56
:1004D00004200AE0C0B2C42801DB052005E0C0B258
:1004E000842801DB062000E007207047F8B50C00E7
:1004F00015002800C0B2FFF7DEFF06002D1F002701
:1005000010E0FFB2002F07D0FF22FFB2390089B2FE
:100510002000FFF728FF002701212000FFF75AFFE6
:10052000EDB26D083000461EC0B2002803D0E807C7
:10053000E7D57F1CF4E7FFB2002F06D0FF22FFB201
:10054000390089B22000FFF70EFFF1BD80B503002E
:100550000800D2B2102A07DA112112FB01F2D2B23E
:100560000121FFF700FF1AE0D2B2102A02D101895F
:10057000C18014E0D2B2182A11DBD2B293F828104D
:1005800018318A4206DA183AD2B201001800FFF791
:1005900035FF04E0D2B201001800FFF7A7FF01BD4C
:1005A0002DE9F04104000D00606AD2B230F812600B
:1005B000606AD2B210EB42004088871B5FF00008EF
:1005C0000CE0206A1FFA88F818FA86F10A5CD2B2A9
:1005D00029002000FFF7BAFF18F101081FFA88F878
:1005E000BFB2B845EDD3BDE8F08180B5D2B290F886
:1005F000283018339A420ADBD2B290F829301833E7
:100600009A4204DA183AD2B2FFF7CAFF02E0D2B235
:10061000FFF79CFF01BD70B586B00400080019000B
:10062000ADF80000237AC318ADF80230ADF804002D
:10063000ADF80620607A1018ADF808000A9803900B
:100640000B98049089B22000FFF76DFE0500002D85
:1006500001D1002010E02E786D1C05E02A78694653
:100660002000FFF7C2FF6D1CBDF90600BDF90810A0
:100670008842F3DB3000C0B206B070BD80B589B2ED
:10068000FFF751FE002801D1002000E0007802BDF4
:1006900070B4002400E0641C437F9C4210D2036AC3
:1006A000182505FB043389B21D884D1B1E8889B2AD
:1006B000B142F0D35E88B542EDD21580180000E05B
:1006C000002070BC7047027A002A04D0017A0079B9
:1006D0004018C0B202E0C06889B2085C70472DE9DA
:1006E000FA4F83B004001500207A00280CD060690E
:1006F000217ABDF810205143A27902FB010002903B
:10070000207A8DF8040017E060692169BDF8102097
:1007100031F81210A27902FB010002902069BDF8A5
:10072000101010EB410040882169BDF8102031F80D
:100730001210401A8DF80400A0798DF80700E079B6
:100740008DF8060060792D18BDF80C00217940184D
:10075000ADF80C00002600275FF0000820E0C9B2C9
:10076000002915D0D2B2002A12D00F980090FF2392
:10077000D2B255FA88F109B2BDF80C0050FA8AFCE1
:100780001000C0B2BCEB000000B2DDF838C0E0479A
:10079000761CF6B2082E01DB00267F1C18F101083A
:1007A0009DF806005FFA88F8804544D20120B040E9
:1007B0008DF80500002100220298FFB217EB000916
:1007C0005FF0000A28E05FF0000B5FFA8BFBC9B214
:1007D0008B451AD0C9B2002915D0D2B2002A12D046
:1007E0000F980090FF23D2B255FA88F109B2BDF8F4
:1007F0000C0050FA8AFC1000C0B2BCEB000000B242
:10080000DDF838C0E04759460022521C1AF1010AAF
:100810009DF8070010EB09099DF804005FFA8AFAB9
:1008200082459CD299F800009DF805301842CAD044
:100830005FF0010BC9E7BDF810102000FFF743FF80
:1008400005B0BDE8F08F3EB50C001500190002AAF6
:1008500089B2FFF71DFF002801D100200BE00799A6
:10086000019106990091BDF808302A0012B22100CA
:1008700009B2FFF734FF3EBD80B56A4689B2FFF783
:1008800007FF002801D1002003E0BDF80010FFF7AA
:100890001AFF02BD2DE9F84380460C0017001D0029
:1008A000089E307A17FB00F7B6F90A000FFA88F8AD
:1008B000317A01FB08F111EB0008B6F90C0024B203
:1008C000717A01FB04F10C185FF000090FE0706809
:1008D00000902B00DBB23A00D2B254FA89F109B28F
:1008E000404600B2D6F800C0E04719F10109707A1D
:1008F0005FFA89F98145EAD3BDE8F18310B50400B8
:1009000089B2E069E2695269904794F8201011FBBE
:1009100000F0C0B210BD30B587B004000A98029054
:100920000B98039094F820008DF8100094F82100A3
:100930008DF81100ADF81210ADF8142002A8019046
:10094000DFF8E80900909BB200220021E069E56928
:10095000AD69A84794F8201011FB00F0C0B207B0B1
:1009600030BD00009310012004ED00E09C3B040822
:10097000C80F0120CC0F0120E03D040830B4010075
:1009800008680078C0B2002801D1002044E00A685D
:10099000521C0A60020602D4C0B280B23CE0C0B26F
:1009A00010F0C002802A02D1C0B280B234E00A68DE
:1009B000127812F0C002C02A02D1C0B280B22BE07D
:1009C0000223202400220BE05B1CE4B264080D68C3
:1009D0002D7815F03F0555EA82120D686D1C0D60EB
:1009E0000500EDB2254202D0DBB2052BECDB0D6831
:1009F0002D7815F03F0555EA82120D686D1C0D60CB
:100A0000C0B2E4B2611E0840591E062311FB03F177
:100A100088400243100080B230BC70470168491E14
:100A2000016002E00168491E016001680978090659
:100A300005D50168097811F0C001C029F2D17047CD
:100A4000F8B504000D0016006D212000FFF759FCD9
:100A500000B2C70020212000FFF753FC56FA80F6B1
:100A6000701B217B401800B23FB239003FB207FA39
:100A700086F2121A90FBF1F001FB0026300000B262
:100A8000F2BDF8B504000D0016006D212000FFF73F
:100A900038FC00B2C70020212000FFF732FC361AD4
:100AA000A81B217B401800B23FB2390036B23FB2DA
:100AB000F21B821890FBF1F001FB1026300000B20F
:100AC000F2BD2DE9F243040090461D0000260027E8
:100AD0001FFA88F8B8F1000F0AD14FF6FF7807E047
:100AE000320012B200212000FFF7AAFF06002027E3
:100AF0004046B0F1010880B200281AD00098007872
:100B0000002816D06846FFF739FF81461FFA89F999
:100B1000B9F1090FE4D0EDB2002D01D0BFB2002F22
:100B2000494689B22000FFF7ECFB56FA80F64F46A3
:100B3000DEE7300000B2BDE8F283F1B50E0014002C
:100B4000002700250020B6B2002E16D14FF6FF7602
:100B500013E07F1C6846FFF711FF80B220280CD0FD
:100B600080B2A02809D080B20A2806D080B20D2811
:100B700003D080B2092800D03D0031004E1E89B25A
:100B8000002903D0009909780029E2D1002C07D070
:100B900000990978002902D10020208000E02080FF
:100BA000280080B2F2BD2DE9FE4F05000E005FF077
:100BB000000A287BB6EB00090C9C0D9FDDF83880FD
:100BC00009E04A4612B2310009B22800FFF738FFA7
:100BD00081465FF0200A2000441E80B2002818D011
:100BE00002A8FFF7CBFE83461FFA8BFBBBF1090F70
:100BF000E7D01FFA8AFABAF1000F43465A4692B27A
:100C0000BDF90410484600B2B84759FA80F9DA46EF
:100C1000E1E7BDE8F78F2DE9FE4F05000E00002744
:100C20005FF000090C9C04E002A8FFF7A7FE19F191
:100C300001091FFA89F9A4B2A145F5D3287BB6EBC7
:100C400000085FF00009DDF834A013E0594689B2CE
:100C50002800FFF756FBB8EB0008BFB2002F0E9B31
:100C60005A4692B2BDF90410404600B2D0475F46E2
:100C700019F101091FFA89F9A4B2A14517D202A8F6
:100C8000FFF7CCFE029800906846FFF777FE834698
:100C90001FFA8BFBBBF1090FD8D1424612B23100CB
:100CA00009B22800FFF7EDFE80462027E0E7BDE807
:100CB000F78F2DE9FE4F05000E0017009846DDF86E
:100CC00030900D9C0022210089B24846FFF735FF85
:100CD0000400DDF838A0DDF83CB05FFA88F8B8F120
:100CE000000F0ED1CDF808B0CDF804A0200080B2DE
:100CF00000904B463A0012B2310009B22800FFF7CB
:100D000052FF5FFA88F8B8F1010F1AD100232200D0
:100D100092B249462800FFF7D4FE00B2022190FBB0
:100D2000F1F0361ACDF808B0CDF804A0A4B20094C2
:100D30004B463A0012B2310009B22800FFF733FFE8
:100D400012E05FFA88F8B8F1020F0DD1CDF808B0C3
:100D5000CDF804A0A4B200944B463A0012B2310080
:100D600009B22800FFF757FFBDE8F78F80B22028AF
:100D70000BD080B20A2808D080B2092805D080B2F2
:100D80000D2802D080B22D2801D1012000E00020E2
:100D9000C0B270472DE9F04104000D00160000209C
:100DA0003080002070800020B0802800FFF7E6FD32
:100DB00007000FE0B088401CB080390089B22000E5
:100DC000FFF79FFA318851FA80F030802800FFF752
:100DD000D5FD0700BFB2002F05D0380080B2FFF765
:100DE000C5FF0028E6D0D5F800800EE0390089B2B2
:100DF0002000FFF786FA718851FA80F07080D5F8EC
:100E000000802800FFF7BAFD0700BFB2002F1CD0FA
:100E1000380080B2FFF7AAFF002816D0B088401C27
:100E2000B080BFB2202FE1D0BFB2092F0AD16D210F
:100E30002000FFF766FAB6F90210C0B2C0004018F1
:100E40007080DCE7BFB20A2FD9D1BFB2002F01D02A
:100E5000C5F80080BFB2002F02D0BFB20A2F01D167
:100E6000012000E00020C0B2BDE8F081FEB50E0018
:100E700014001D002968009101AA6946FFF78AFF46
:100E8000070036B2B4F90600BDF90410081886420E
:100E90001EDB0098286014F1100014F10A010622EC
:100EA00003F0E2FD14F10A0001A9062203F0DCFDC3
:100EB0002772A088BDF808100818A080E088BDF847
:100EC0000410BDF8062051180818E080012000E049
:100ED0000020FEBDF8B507000E0014001D002868B4
:100EE00000906846FFF74AFD010089B23800FFF71D
:100EF00008FA36B2B4F9061080B241188E4209DB06
:100F000000992960A188491CA180E1884018E080EF
:100F1000012000E00020F2BD10FB00F070472DE939
:100F2000F84304000D001600E088A189471AE888FC
:100F3000A989401A301A00B2FFF7EEFF8046F01B75
:100F400000B2FFF7E9FF10EB0807E088698911EBB1
:100F50000008E8886989401AA989401A698A401AF4
:100F6000301A00B2FFF7D8FF8146B6EB080000B296
:100F7000FFF7D2FF10EB0900B84227DA36B20FFABA
:100F800088F8464522DBEE89A888801BA880A088C7
:100F90003018A080E8886989401AA989401AE88039
:100FA000E0886989AA8951180818E08015F10A00BB
:100FB00015F11001062203F057FD02E02000FFF7B3
:100FC0002DFD3000461E80B20028F7D1BDE8F18328
:100FD000F4B58CB004000D001E006846DFF8501315
:100FE00091EC060B80EC060B06A8DFF8EC1691ECF2
:100FF000060B80EC060B0C980090129F19E006A8D7
:10100000694691EC060B80EC060B0C9800900020D2
:10101000ADF804000020ADF8060000208DF80800AF
:101020000020ADF80A000020ADF80C000020ADF85B
:101030000E000C980078002837D00CAB6A462900C7
:1010400009B22000FFF712FF10F0010090F001003C
:101050009DF808100843C0B20028EAD0BDF804008B
:10106000002808D10CAB6A46290009B22000FFF71E
:1010700031FF0028F6D1BDF81C000028BFD09DF834
:1010800020009DF808100843C0B2002805D12A00AE
:1010900012B206A96846FFF742FF3A00BDF81C10DD
:1010A0000698B0470028AAD113E0BDF81C0000281C
:1010B00006D03A00BDF81C100698B047002808D0AA
:1010C000BDF80400002804D03A00BDF804100098D0
:1010D000B0470DB0F0BD80B503F055FD01BD80B542
:1010E000B0F92C10B0F92420914211DBB0F92C108A
:1010F000B0F9282091420BDAB0F92E10B0F9262071
:10110000914205DBB0F92E10B0F92A20914200DBA4
:1011100001E0FFF7E0FF01BD80B503F002FE01BD75
:1011200080B5B0F93410B0F92C20914205DA818DE8
:101130000186818E8185018E8186B0F92E10B0F9ED
:101140002620914205DBB0F92E10B0F92A209142F9
:1011500000DB28E0B0F92C10B0F92420914201DA2C
:10116000818C8185B0F93410B0F92820914202DBDE
:10117000018D491E8186B0F93410B0F92C209142BE
:1011800011DBB0F92C10B0F93420914202D1FFF7F5
:10119000A2FF08E0818E828D891A491C01860121F7
:1011A000418603F0BEFD01BD2DE9FC410400B4F908
:1011B0000800402190FBF1F52DB2002D00D1012552
:1011C000B4F908002DB2B0EB4510022190FBF1F606
:1011D000B4F90A002DB2B0EB0510022190FBF1F733
:1011E000DFF858851CE04FF478400190B8F806000D
:1011F00010FB05F000B20090B8F8040010FB05F3F6
:101200001BB2B8F9020010FB057212B2B8F9000067
:1012100010FB056109B2200000F0BDF818F10808C4
:10122000DFF81C058045DED3BDE8F38110B5DFF89B
:1012300014058078C00704D40021DFF80805FEF704
:101240007FFFC820FEF7FCFE00216720FEF7E6FFC7
:1012500004000BE00021200000F088F8200000F0DE
:1012600072F821006720FEF7D9FF0400002CF1D1AD
:101270005FF0FF30DFF8D014087010BD38B50400FF
:10128000237762770020E083616114F12000FEF78C
:10129000E2FE00235FF0FF320021206A02F029FF06
:1012A000200003F050FC0500002300220021206AEA
:1012B00002F07FFD280040B232BD10B582B00400BC
:1012C000B4F90A000090B4F908300022002120008F
:1012D00000F0BCF80021200000F048F8DFF86804B6
:1012E00090F90000002802D12000FFF75DFF2000E8
:1012F00000F029F8DFF840050068002802D1DFF887
:101300003805046013BD10B50400DFF82C05006833
:10131000A04206D100216720FEF76AFFDFF818150A
:101320000860206A03F011F810BD0000950801085C
:10133000A8370408B0F908007047B0F90A007047F0
:10134000B0F90C00704710B5040000235FF0FF32C5
:101350000021206A02F0CDFE200003F00FFC0023E4
:1013600000220021206A02F024FD10BD38B50400DF
:101370000D0000235FF0FF320021206A02F0B9FE69
:10138000A587200003F076FD002300220021206ABB
:1013900002F00FFD31BDF8B504000D0016001F006E
:1013A00000235FF0FF320021206A02F0A2FEA58533
:1013B000E6852786069860860798A087B4F92C00F2
:1013C000B4F92410884207DA208EA18C401AA18D2E
:1013D00008182086A08CA085B4F92E00B4F9261038
:1013E000884207DA608EE18C401AE18D0818608629
:1013F000E08CE085B4F92800B4F92C10B4F9302061
:101400005118884203DA208DA18D401A2086B4F944
:101410002A00B4F92E10B4F932205118884203DAA8
:10142000608DE18D401A6086B4F93000012806DB3A
:10143000B4F93200012802DB2000FFF76DFE002323
:1014400000220021206A02F0B4FCF1BDF8B50400CE
:101450000E0015001F0000235FF0FF320021206AFC
:1014600002F047FE36B2002E01D5F7190026BDF96D
:1014700018002DB2002D01D5281800253FB2012FEC
:101480000CDB00B2012809DBB4F9081036B28E4239
:1014900004DAB4F90A102DB28D4203DB00263000C5
:1014A00037003500A684E584B9192185B4F9081000
:1014B000B4F92820914201DA2189218540196085FB
:1014C000B4F90A00B4F92A10884201DA608960850B
:1014D000002300220021206A02F06BFCF1BD2DE9FF
:1014E000F84304000D001600994600235FF0FF3218
:1014F0000021206A02F0FDFD0127D9F104080898B7
:10150000A087A58519EB0600E0852000FFF7E7FD21
:10151000A585B6EB0900E0852000FFF7E0FD19EB9B
:101520000500A085E6852000FFF7D9FDB5EB090091
:10153000A085E6852000FFF7D2FD7819A08519EB7C
:101540000600E0852000FFF7CAFD7819A085B6EBFC
:101550000900E0852000FFF7C2FD19EB0500A0851A
:10156000B819E0852000FFF7BAFDB5EB0900A085AA
:10157000B819E0852000FFF7B2FDE81BA08519EB44
:101580000600E0852000FFF7AAFDE81BA085B6EB6A
:101590000900E0852000FFF7A2FD19EB0500A085FA
:1015A000F01BE0852000FFF79AFDB5EB0900A08550
:1015B000F01BE0852000FFF792FD0FFA88F8B8F1E4
:1015C000000F06D53FB27800C01C10EB08087F1C46
:1015D00009E0B7EB090000B24000401D10EB08081D
:1015E000B9F101097F1C3FB20FFA89F94F45A4DB1D
:1015F0007819A08519EB0600E0852000FFF76FFD44
:101600007819A085B6EB0900E0852000FFF767FD9B
:10161000E81BA08519EB0600E0852000FFF75FFDC1
:10162000E81BA085B6EB0900E0852000FFF757FD19
:10163000002300220021206A02F0BBFBBDE8F183F9
:10164000F8B504000D0016001A00069FB7F94E0009
:101650002DB2854210DBB7F952002DB285420BDA6C
:10166000B7F94C00F6B206FA84F1884204DAB7F909
:10167000500024B2844200DB2CE0B7F94C0024B2C5
:10168000844205DAB7F84C00301A2618B7F94C40F6
:10169000B7F95000F6B206FA84F1884202DAB7F8D8
:1016A0005000061BD2B2FF2A03D1B7F84800B88712
:1016B00007E0D2B2B7F84A10B7F8480000F0BEF819
:1016C000B887BC85FD8554FA86F0401EB886380080
:1016D000FFF726FDF1BD0000C03704081CB51C0053
:1016E0000194DFF88432009313009BB20A0012B217
:1016F000010009B2606CFEF7DFFD16BD1068401CEA
:101700001060012070471FB5140022680392DFF8B3
:101710005C22029289B201910090237BB4F90620E9
:10172000B4F90410A068FFF7C4FAE088A168897BC7
:101730004018E080012004B010BD0000A81F04087C
:1017400028200408C8220408941001202DE9F04341
:1017500087B00400894615001E0000235FF0FF32A9
:101760000021206A02F0C5FC109F6764A4F84C9029
:10177000A4F84E5016EB0900A4F85000BDF93880CB
:1017800018EB0500A4F852001198A4F8480012982C
:10179000C0B20100012902D002290AD00EE036B2FF
:1017A000711C022291FBF2F111EB0901ADF80C1052
:1017B00009E016EB0901ADF80C1004E0397B19EBD8
:1017C0000101ADF80C10ADF80E5004978DF814001F
:1017D00002940020ADF804000F9D01A80090DFF8EE
:1017E00090312A00310009B23800FFF7F1FBBDF853
:1017F0000E000FFA88F818F10101BDF804207B7A79
:1018000003FB1211022291FBF2F10818ADF80E0051
:1018100002A80090DFF85C312A00310009B23800DC
:10182000FFF7D6FB002300220021206A02F0C1FA54
:1018300007B0BDE8F0830000D00F012030B4D2B271
:10184000531CD2B2D2F58074020092B2120A12F086
:10185000F80212FB03F5020092B2D20812F0FC0269
:1018600012FB03F210F01F00C00010FB03F089B25E
:101870000B1213F0F803A4B2634313FA85F589B28F
:10188000CB1013F0FC03A4B2634313FA82F289B2C3
:1018900011F01F01C900A4B2614311FA80F0ADB28A
:1018A0002D0A92B2120A80B2000A15F0F80112F065
:1018B000FC02D20052EA012110F0F800C0B2C008C8
:1018C000C0B2084380B230BC704700E0491C0278C7
:1018D000002A12D02A2A18D10A78002A07D1407883
:1018E000002801D1012000E0002040B2704742787A
:1018F0000B789A42EAD1401CE9E70878002801D128
:10190000012000E0002040B2F0E70A7803789A4214
:1019100001D00020EAE7401C491CD8E738B5040094
:10192000FEF7FEFC050000E02D68002D08D0686879
:1019300001682000FFF7C9FF0028F5D0686812E0B1
:10194000FEF7EEFC050000E02D68002D08D0686869
:1019500041682000FFF7B9FF0028F5D0686802E071
:10196000FEF7DEFC406832BD41160108DD160108B5
:10197000FD1601080717010880B5017B11F003016E
:1019800002290CD1818951F001018181012101835A
:1019900081894FF6FD7211408181FEF787FB01BD01
:1019A00080B5DFF85C05FEF756FB01BD10B50400FD
:1019B0007FF0004200212000FEF754FB0020206150
:1019C000002020830020A08110BDF8B504000D0088
:1019D0001600002C01D0002D01D100203EE0002394
:1019E0005FF0FF320021DFF81805006802F081FB8C
:1019F0000027DFF8040506E0002F03D10168002965
:101A000000D107001030DFF8F414884211D20168C9
:101A10008C42F1D141688D42EED1866000230022D4
:101A20000021DFF8DC04006802F0C3F95FF0FF304A
:101A300014E0002F04D03C607D60BE600020F860A0
:101A4000002300220021DFF8B804006802F0B1F999
:101A5000002F01D0012000E0002040B2F2BD70B59F
:101A600004000D001600002C1CD000235FF0FF3294
:101A70000021DFF88C04006802F03BFB2000FFF738
:101A80007BFF66612561002D04D0A0894FF6FE71B1
:101A90000840A081002300220021DFF864040068D0
:101AA00002F087F970BD38B504000D00002C01D19B
:101AB00000203AE000235FF0FF320021DFF840040D
:101AC000006802F016FB002D0DD0286800280AD00F
:101AD0002868007B400706D5286880894FF6FA7190
:101AE000084029688881002D01D0103503E0DFF817
:101AF000085400E01035DFF8040485420CD2686811
:101B00008442F7D1002300220021DFF8F4030068AB
:101B100002F04FF9280008E0002300220021DFF83E
:101B2000E003006802F045F9002032BD10B5040062
:101B300000235FF0FF320021DFF8C403006802F0E9
:101B4000D8FA2068007BC00709D5002300220021B5
:101B5000DFF8AC03006802F02CF900200FE02068E9
:101B6000808950F00500216888810023002200212F
:101B7000DFF88C03006802F01CF92068183010BDF3
:101B800010B5040000235FF0FF320021DFF870037E
:101B9000006802F0AEFA20680069002817D02068BB
:101BA00080894FF6F2710840216888810023002265
:101BB0000021DFF84C03006802F0FBF8206810F108
:101BC00018012068406922681269904723E0206864
:101BD00080894FF6FB710840216888812068007B6E
:101BE00080070AD5206880894FF6F5710840216882
:101BF00088812068FEF75AFA05E02068808950F055
:101C0000080021688881002300220021DFF8F0020B
:101C1000006802F0CEF810BD70B55FF0FF3600240A
:101C20001CE0017C89070AD48168491BB14206D2B5
:101C30008168491BDFF8BC251268B1FBF2F64069E8
:101C4000DFF80016096888424AD12C0000230022E0
:101C50000021DFF8A405006802F0ABF85FF08050C7
:101C6000DFF898150860BFF34F8FBFF36F8F310017
:101C7000DFF8D405FEF702FA1CE081694269916140
:101C8000416982695161DFF8BC150968814203D15D
:101C90004169DFF8B02511600021018205684668BE
:101CA000002300220021DFF85005006802F081F8CF
:101CB0003000A84701F0A0FB05005FF0FF360023CD
:101CC0005FF0FF320021DFF83005006802F011FA02
:101CD000DFF8700500680028B7D0DFF868050068F5
:101CE000017C490712D4017C89079AD4A54205D307
:101CF0008168A14202D381688D4207D2A54290D269
:101D00008168A14202D281688D428AD3017CC907D1
:101D100017D5C168002914D0017C89070BD48168CC
:101D2000C26852198368D21AC368B2FBF3F2C3685F
:101D300003FB02118160018A4FF6FB7211400182A0
:101D4000ACE74169814298D10021DFF8F8241160A5
:101D5000A2E780B501220021DFF8EC04FEF782F94A
:101D6000DFF89404FEF777F90120FEF770F9DFF849
:101D70008414086001BD002101827047F8B5040099
:101D80000D0016001F0000235FF0FF320021DFF876
:101D90006804006802F0ADF9DFF8B00400680028BC
:101DA0000ED100200090DFF8A83406224FF48061A5
:101DB000DFF8A0040068FEF7A5F9DFF890140860CA
:101DC000207C000716D56069A04204D10020DFF80E
:101DD000741408600EE0A069616988616069A16996
:101DE0004861DFF860040068A04203D16069DFF851
:101DF0005414086025606660082020827FB2002F9E
:101E000003D0208A50F001002082069810F1010FC3
:101E100007D1208A50F0020020825FF0FF30E0609E
:101E200007E0FEF714F9E06001F0E6FAE16808184F
:101E3000A060DFF81004006800280DD0DFF804046B
:101E400000686061DFF8FC0300688069A061A06938
:101E500044616069846104E0DFF8E8030460A46120
:101E60006461207C800703D4DFF8DC03FEF71EF9F1
:101E7000002300220021DFF88003006801F099FFB1
:101E8000F1BD007C000702D55FF0FF3000E00020CC
:101E900040B2704710B5040000235FF0FF3200210C
:101EA000DFF85403006802F024F9208A50F004009F
:101EB0002082DFF89403FEF7F9F8002300220021C6
:101EC000DFF83403006801F074FF10BD80B5018AAB
:101ED00051F004010182DFF87003FEF704F901BD3F
:101EE00080B500F0BBF900F08BF900F0D5FD01BD25
:101EF000DFF86403008870472805012028070120C7
:101F0000D40F012070B50C0020884FF48071401A66
:101F1000012806D9801E00F08780401E00F0A080B6
:101F2000DBE00025002000F0E4FA20E0B4F9021024
:101F3000B0F90C20914218DBB4F90210B0F90C2072
:101F4000B0F910309A1891420FDAB4F90410B0F9D0
:101F50000E20914209DBB4F90410B0F90E20B0F95B
:101F600012309A18914200DA050000F0C2FA0028F7
:101F700037D08168E268914202D18169890500D435
:101F8000F3E7816911F48201B1F5820FCED105002A
:101F9000207A800614D5A86930F48000A8616868AA
:101FA000C06900281CD0A088E989421A12B2608852
:101FB000A989411A09B228006B68DB6998470FE0CC
:101FC0006868006A00280BD0A088E989421A12B21A
:101FD0006088A989411A09B228006B681B6A984772
:101FE0000025002D1FD0A86910F48430B0F5843F7F
:101FF00019D1207AC00616D5A86950F48000A861CE
:10200000280000F06BF86868806900280BD0A08871
:10201000E989421A12B26088A989411A09B22800D6
:102020006B689B69984758E06088012808D120793F
:10203000092805D1207BC00701D400F07BF84CE0D3
:10204000DFF814050068002809D02100DFF8080532
:102050000068DFF8042512685268526A90473CE035
:10206000002000F046FA050003E0280000F041FAE5
:102070000500002D30D0A86910F48530B0F5853FFB
:10208000F3D100260AE06868406B002805D03100D3
:1020900089B228006A68526B9047761C6868008D88
:1020A000B6B28642E1D2310089B228006A68126B6A
:1020B0009047618880B28842EFD194F904000028EB
:1020C000E1D06868806B0028E7D0310089B2280031
:1020D0006A68926B9047E0E7FFE770BD10B50400B7
:1020E000DFF874040068844202D15FF0FF3020E022
:1020F000002C0BD0A069DFF8E4150840DFF8DC15F0
:10210000884215D16068406A002811D0DFF8480481
:102110000068DFF844140C60002801D000F062F978
:10212000002C02D0200000F05DF95FF0FF3000E0ED
:10213000002010BD38B50025DFF81C04006800F051
:10214000D8F9040003E0200000F0D3F90400002CCB
:1021500008D16DB2002D05D15FF0FF35002000F0F1
:10216000C8F904002000FFF7B9FF0028EBD031BD0B
:1021700010B58169DFF864251140DFF860259142D0
:102180000CD14168496A002908D0DFF85415096864
:10219000002902D1DFF84815086029E0DFF8401572
:1021A0000968884224D1DFF838050468200000F06F
:1021B000A0F901E000F09DF9002815D0A04213D04D
:1021C0008169DFF818251140DFF810259142F1D11F
:1021D0004168496A0029EDD0DFF80415086081697B
:1021E00051F48041816103E00020DFF8F4140860BD
:1021F00010BD0000E40F0120D80F012004ED00E025
:1022000080B5DFF8E004FFF7D1FB0022DFF8D81437
:10221000DFF8D004FFF723FC5FF0FF3000F0F9FE99
:1022200003220100DFF8BC04FFF7CFFB5FF0FF30B3
:1022300000F054FC04220100DFF8A804FFF7C5FBFE
:1022400001BD0000E00F0120740F0120DC0F012010
:10225000191C0108000000207410012080B5012223
:102260000121DFF81C08FDF7FDFEDFF81808FDF777
:10227000E8FFDFF81408DFF814180860DFF80C082E
:10228000006800680068804701BD000070B582B03A
:102290000400DFF8FC070078002800F0A280E4B218
:1022A000002C17D15FF0FF31DFF8D407FDF7E6FE11
:1022B000DFF8DC070078C00747D5DFF8D4070078DF
:1022C00010F0FE00DFF8C8170870002000F011F9C8
:1022D000050031E0E4B2012CEAD10021DFF8A007CB
:1022E000FDF7CCFE0028E3D17BE0B5F912000090A9
:1022F000B5F91030B5F90E20B5F90C10A868FFF744
:10230000A5F82800DFF88417096809680969884773
:10231000A868FFF712F80600A868FFF70BF803009B
:1023200036B200961BB200220021A868FFF78EF893
:10233000280000F0DEF80500002DB9D0A86910F4DF
:102340008440B0F5804FD0D0F2E7DFF84407007842
:1023500080073CD5DFF83807007810F0FD00DFF883
:1023600030170870002000F0C4F8050026E0B5F929
:1023700012000090B5F91030B5F90E20B5F90C1027
:10238000A868FFF763F82800DFF8001709680968F4
:1023900009698847A868FEF7D0FF0600A868FEF71D
:1023A000C9FF36B2009603001BB200220021A868C4
:1023B000FFF74CF8280000F09CF80500002DC4D071
:1023C000A86910F48440B0F5844FD0D0F2E7E4B2AD
:1023D000002C02D0E4B2012C03D1DFF8A406FDF7F3
:1023E00065FE73BD80B5816989050ED5816951F49B
:1023F00080418161DFF89806007850F00200DFF834
:10240000901608700120FFF741FF01BD10B50020B4
:1024100000F06FF804001DE0A06930F40070A061C6
:10242000206A002803D0206A806980050ED5A06943
:1024300050F44040A0612000FFF79AFEDFF85006FC
:10244000007850F00100DFF848160870200000F016
:1024500050F80400002C33D0A06910F44070B0F59F
:10246000807F06D0B0F5007FD6D0B0F5407F17D082
:10247000ECE7206A002803D0206A806980050ED529
:10248000A06950F44240A0612000FFF771FEDFF820
:102490000006007850F00200DFF8F4150870D5E768
:1024A000206A002803D0206A8069800500D5CDE726
:1024B000A06930F40070A0612000FFF759FEC5E765
:1024C00010BD80B549B2002904D0816951F48071F2
:1024D000816103E0816931F480718161FFF796FFCA
:1024E000DFF8AC050078002802D00120FFF7CEFE0F
:1024F00001BD002801D0006802E0DFF8880500680F
:1025000070477047704738B504000D002100DFF8B0
:102510007405FDF79BFE03202082032060820020CB
:10252000E081E089A081B5F90220B5F90010200012
:1025300000F0A2F9B5F90620B5F90410200000F06A
:10254000D5F85FF0FF3032BD80B50100DFF834050B
:10255000FDF78FFE01BD0000E80F012030B583B00C
:10256000040005E0A06940F0807050F40040A061D4
:10257000A06980053FD56068C068002804D02000AD
:102580006168C96888471BE0A069000418D5E08A23
:102590000190B4F912000090B4F91030B4F90E2093
:1025A000B4F90C10A068FEF7F6FEA069C00107D4CC
:1025B00060680069002803D02000616809698847C5
:1025C000A06910F08170B0F5003F40F08180A069F3
:1025D000DFF8C0140840A061200000F05EFA04009B
:1025E00006E02000FFF7FEFE200000F066FA04007F
:1025F000002CF6D171E0A069000469D5206A00289A
:1026000009D0A069DFF88C140840A061246AA06991
:102610004004A7D561E0FFF76BFC80B20190B4F9EC
:1026200012000090B4F91030B4F90E20B4F90C1077
:10263000A068FEF7B0FE0020FFF75BFF050011E089
:10264000E88A0190B5F912000090B5F91030B5F99B
:102650000E20B5F90C10A868FEF79DFE2800FFF7C4
:1026600048FF0500002D33D0A8698005F6D5A8687D
:10267000A1688842F2D1B5F90C00B4F90C10B4F994
:10268000102051188842E9DAB5F90E00B4F90E109D
:10269000B4F9122051188842E0DAB5F90C00B5F906
:1026A00010100818B4F90C108842D7DBB5F90E00E9
:1026B000B5F912100818B4F90E108842CEDB68681C
:1026C000C0680028BCD028006968C9688847C5E789
:1026D000A069DFF8C0130840A06137BD000F0100FA
:1026E000E80F0120E00D0120051F010870B504006E
:1026F0000D001600206A002827D0206A216A496848
:10270000496C8847216A8989226A128A5118081AF5
:1027100000B2B4F90C102DB26918884201DAA1890F
:10272000451A206A216A4968896C8847216AC989E3
:10273000226A528A5118081A00B2B4F90E1036B241
:102740007118884201DAE189461AA068FEF7F2FDA5
:1027500000B2B4F90C102DB26918884201DAA189CF
:10276000451AA068FEF7E9FD00B2B4F90E1036B2C2
:102770007118884201DAE189461A2DB2032D00DA78
:10278000032536B2032E00DA0326B4F910002DB269
:10279000A84204D1B4F9120036B2B0426BD0A0699D
:1027A000800542D5B4F910002DB285420ADBB4F998
:1027B000120036B2864205DB258266822000FFF7D2
:1027C00011FE58E000212000FFF77BFE0020FFF7FC
:1027D0005DFD25826682A069800320D5200000F07F
:1027E0005CF9050019E020006168096C8847060063
:1027F00020006168C96B8847E989E289891A8A1BC8
:1028000012B2A989A389C91A091A09B2280000F0CD
:1028100033F8280000F051F90500002DE3D15FF0F6
:10282000FF312000FFF74DFE25E025826682A0697A
:10283000800320D5200000F030F9050019E02000C9
:102840006168096C8847060020006168C96B884789
:10285000E989E289891A8A1B12B2A989A389C91A4E
:10286000091A09B2280000F007F8280000F025F93D
:102870000500002DE3D170BD2DE9F04104000D00ED
:102880001600206A002820D0206A216A4968C96B96
:1028900088470700206A216A4968496C8847216A8D
:1028A000098AC91B0F1A206A216A4968096C88477E
:1028B0008046206A216A4968896C8847216A498A6A
:1028C000B1EB0801B1EB000807E0A068FEF732FDAC
:1028D0000700A068FEF731FD80463FB2B4F9100052
:1028E00000FA85F0874201DA208A3D1A2DB2002DC8
:1028F00000D500250FFA88F8B4F9120000FA86F026
:10290000804502DA608AB8EB000636B2002E00D5A8
:1029100000267F1BB8EB0608B4F910003FB2B8429E
:1029200001DAB4F91070B4F912000FFA88F84045D2
:1029300001DAB4F91280B4F910003FB2874205D130
:10294000B4F912000FFA88F8804506D0424612B258
:10295000390009B22000FFF7C9FE206A002811D013
:10296000206A216A4968C96B8847216A89894018A9
:102970004519206A216A4968096C8847216AC98912
:1029800040188619B4F90C002DB2A84204D1B4F94C
:102990000E0036B2B04261D0A069800535D5002165
:1029A0002000FFF78EFD0020FFF770FCB4F90C70DB
:1029B000A581B4F90E80E681A06980031FD52000AF
:1029C00000F06BF8050018E020006168096C88478A
:1029D000060020006168C96B8847E989B1EB0801EE
:1029E0008A1B12B2A989C91B091A09B22800FFF76C
:1029F00043FF280000F061F80500002DE4D15FF0EE
:102A0000FF312000FFF75DFD28E0B4F90C70A581CF
:102A1000B4F90E80E681A06980031FD5200000F084
:102A20003CF8050018E020006168096C8847060042
:102A300020006168C96B8847E989B1EB08018A1BEE
:102A400012B2A989C91B091A09B22800FFF714FF9D
:102A5000280000F032F80500002DE4D1BDE8F08137
:102A6000704710B5040021000648FDF702FC210064
:102A70000448FDF7EBFB2000FFF7B4FC10BD00009D
:102A8000800F01208C0F0120643E0408EC0F012010
:102A900095100120FF3FFFFE704710B50400002095
:102AA000FFF727FD01E0FFF724FD002803D0016AAE
:102AB000A142F8D100E0002010BD10B504002000B4
:102AC000FFF717FD246A01E0FFF713FD002803D08C
:102AD000016AA142F8D100E0002010BD10F1010F01
:102AE00002D1DFF8780500E000207047000080B5D3
:102AF00000F052FA01BD70B504000E001500200070
:102B0000FFF714F8002808D1E068A97911F0F00166
:102B100051F400410843E0604CE0A979F0221142F1
:102B200019D1E168002916D1217A090713D4B5F922
:102B30000010B6F9082091420DD1B5F90210B6F98E
:102B40000A20914207D1A97911F00F01B27B12F04E
:102B50000F0291422ED0A979C90702D5217A89079F
:102B60000DD4A979C90702D4217A490707D4A979D4
:102B7000F022114202D0217AC90700D41AE071680C
:102B80008978C90702D540F2011101E04FF4807144
:102B900001802988418069888180A988C180E9886D
:102BA000E268114301810021E160F169C160200008
:102BB000FEF7E6FF70BD7CB50400208A4FF6BF71BA
:102BC00008402082694620006268126B9047002806
:102BD00000F0C8819DF8060010F00F00ADF8060067
:102BE00060688078C00714D56068B0F91400616827
:102BF000B1F9161088422FDBBDF904006168B1F904
:102C00001810884218DBBDF8060050F00100ADF83E
:102C1000060060684088800541D5207C80074DD53E
:102C2000BDF80600E1894840C00733D4208A4FF63A
:102C3000FD710840208295E16068B0F91A00BDF985
:102C40000410884207DBBDF806004FF6FE7108400D
:102C5000ADF80600DDE785E16068B0F91800BDF960
:102C60000410884206DBBDF8060050F00100ADF804
:102C70000600CEE7BDF904006168B1F91A10884278
:102C800007DBBDF806004FF6FE710840ADF8060000
:102C9000BFE767E1208A4FF6FD7108402082606837
:102CA0004088C00515D59DF80600C00711D42089BD
:102CB000ADF800006089ADF802006DE0BDF80600D7
:102CC000E1894840C007EAD5208A50F002002082FE
:102CD00048E1E06900285FD0E069FEF72BFB0500C2
:102CE000E069FEF72AFB060060688078400730D470
:102CF000E069FEF725FB002807D05A2806D0B42843
:102D00000FD0B0F5877F19D023E022E0BDF9000095
:102D1000691EBDF80220891AADF80010ADF8020056
:102D200017E0681EBDF80010401AADF80000701ED4
:102D3000BDF80210401AADF802000AE0BDF9020029
:102D4000711EBDF80020891AADF80210ADF8000020
:102D5000FFE7207C40071FD5BDF90000002803D500
:102D60000020ADF8000007E0BDF900002DB2A84238
:102D700002DB681EADF80000BDF90200002803D593
:102D80000020ADF8020007E0BDF9020036B2B04203
:102D900002DB701EADF80200207C800602D5606860
:102DA000223001E060681C30B0F90410012924DBF6
:102DB000BDF90010B4F90820891ABDF90020B4F952
:102DC0000830D21ABDF90230B4F90A505B1BBDF9C4
:102DD0000250B4F90A60AD1B6B4302FB0131B0F93C
:102DE0000420B0F9043012FB03F2914205D221898C
:102DF000ADF800106189ADF80210B0F90210012998
:102E000026DB217CC90723D5BDF90010B4F91220B7
:102E1000891ABDF90020B4F91230D21ABDF9023076
:102E2000B4F914505B1BBDF90250B4F91460AD1B2A
:102E30006B4302FB0131B0F90220B0F9020012FB32
:102E400000F0884204D2208A4FF6FE7108402082AA
:102E5000BDF80600E1898843BDF80610E28932EA30
:102E60000105C10705D5BDF8061051F01001ADF8F8
:102E70000610E90705D5BDF8061051F02001ADF8A0
:102E80000610032108420CD0BDF800006082BDF896
:102E90000200A08200F0B0FAA061208A50F0010088
:102EA00020820320054234D0207CC00731D5208AFF
:102EB0004FF6FE710840208200F09EFAA169401A88
:102EC000A0614FF49670FDF7C2F8A16988420FD354
:102ED000A80705D5BDF8060050F08000ADF8060043
:102EE000E80705D5BDF8060050F04000ADF8060033
:102EF00060688078C0070CD54FF4FA70FDF7A7F82A
:102F0000A169814205D3BDF8060050F08000ADF8FC
:102F10000600002504E06A4621002800FFF7EBFDCB
:102F20002900DFF83C01FEF7BEFD0500002DF2D1BF
:102F3000002504E06A4621002800FFF7DCFD290097
:102F40002000FEF7B0FD0500002DF3D1BDF8000014
:102F50002081BDF802006081BDF80400A081BDF8A9
:102F60000600E08173BD10B500216D20FDF756F914
:102F700004000EE060688078800702D5207C40065F
:102F800002D52000FFF717FE21006D20FDF746F95E
:102F90000400002CEED110BD80B5DFF8C8004088D9
:102FA000000406D4DFF8C0000168DFF8B800FDF7C0
:102FB000C7F801BD80B5C16141688978090703D5AB
:102FC000018A51F02001018211004268926A904703
:102FD000002801D1002012E0DFF88400FEF751FF45
:102FE00000280AD1192000905FF0FF330022DFF89B
:102FF0007C10DFF86C00FEF7C1FE5FF0FF3002BD11
:1030000080B5018A51F004010182FFF7D4FD01BDB2
:10301000704780B510F1010F02D1DFF8440003E0E2
:1030200001006D20FDF7E4F802BD80B5002803D053
:10303000018A51F040010182DFF82400FEF72AFFE7
:1030400001BD80B5002803D0018A51F04001018202
:10305000DFF80C00FEF73AFF01BD7047F00F0120CA
:10306000880E01204C2B0408D00F0120672F010887
:103070002DE9F04782B005000E00170098462800A1
:10308000002809D172B6502080F31188BFF34F8F0A
:10309000BFF36F8F62B6FEE70A9C072C09D372B6A6
:1030A000502080F31188BFF34F8FBFF36F8F62B64C
:1030B000FEE70C99380080B200F050FC8146B9F16F
:1030C000000F7BD0D9F83000BFB210EB8700B0F111
:1030D000040A5FEADA0A5FEACA0A1AF0070000285F
:1030E00009D072B6502080F31188BFF34F8FBFF321
:1030F0006F8F62B6FEE7BFB200970D9B22003100D2
:10310000484600F077FB42462900504601F026FA77
:10311000C9F800000B98002801D0C0F8009001F019
:1031200094FADFF8E0040068401CDFF8D814086067
:10313000DFF8D404006800280BD1DFF8CC04C0F815
:103140000090DFF8C0040068012811D100F07DFB79
:103150000EE0DFF818050068002809D1DFF8A804A0
:103160000068C06A844203D3DFF89C04C0F8009072
:10317000DFF8FC040068401CDFF8F4140860DFF896
:10318000F0040068C9F84400DFF8E8040068012191
:10319000D9F82C2091400843DFF8D814086019F1C1
:1031A0000401DFF8D404D9F82C20142303FB020017
:1031B00001F0EBFE012501F069FA01E05FF0FF3557
:1031C000012D13D1DFF8A404006800280ED0DFF829
:1031D00038040068C06AA04208D25FF08050DFF86F
:1031E000EC150860BFF34F8FBFF36F8F2800BDE869
:1031F000F68710B504000020002C30D0DFF804055D
:103200000068002809D072B6502080F31188BFF3FF
:103210004F8FBFF36F8F62B6FEE700F065F8DFF8FF
:10322000140500682418DFF8E0030068001D01F0B1
:10323000D3FE00280ED1DFF8D0030068DFF8341485
:1032400009680122C06A12FA00F031EA0000DFF8D2
:1032500024140860200000F055FB00F04DF8002811
:1032600008D15FF08050DFF8EC160860BFF34F8F95
:10327000BFF36F8F10BD00B585B000200390002014
:103280000290002001900020009000238022DFF8AF
:103290001C180FF23D50FFF7EBFE012801D101F0A1
:1032A000AFFE012814D172B6502080F31188BFF30D
:1032B0004F8FBFF36F8F62B60120DFF8B013086045
:1032C0000020DFF87014086001F073F905B000BD4C
:1032D0000028FBD172B6502080F31188BFF34F8FC6
:1032E000BFF36F8F62B6FEE7DFF818040068401C7A
:1032F000DFF810140860704738B50024DFF80404C4
:103300000068002809D172B6502080F31188BFF3FD
:103310004F8FBFF36F8F62B6FEE701F096F9DFF8CB
:10332000E4030068401EDFF8DC130860DFF8D40314
:10333000006800285CD1DFF8CC020068002829D1A1
:1033400056E0DFF82808C068C56815F1180001F0DC
:1033500043FE281D01F040FEDFF81803006801213C
:10336000EA6A91400843DFF80C130860291DDFF872
:103370000803EA6A142303FB020001F006FEE86A70
:10338000DFF884120968C96A884203D30120DFF894
:103390000C180860DFF8D40700680028D1D1DFF8E6
:1033A000F007006800280FD113E000F029F800288A
:1033B00003D00120DFF8E4170860DFF8D4070068C5
:1033C000401EDFF8CC170860DFF8C407006800284B
:1033D000EBD1DFF8C8070068012809D101245FF0AC
:1033E0008050DFF870150860BFF34F8FBFF36F8F09
:1033F00001F04CF9200032BDDFF838030068704757
:1034000070B50024DFF8FC02006800287AD1DFF8EC
:1034100024030068401CDFF81C130860DFF8140365
:103420000568002D24D1DFF86C07006800680028CB
:1034300009D072B6502080F31188BFF34F8FBFF3CD
:103440006F8F62B6FEE7DFF84C070068DFF84817B9
:103450000968DFF840271160DFF83C170860DFF8E3
:1034600040070068401CDFF83817086000F0A4FA35
:10347000DFF834070068854238D320E0301D01F0C2
:10348000ABFDB06A002803D016F1180001F0A4FDCE
:10349000784800680121F26A914008437549086044
:1034A000311D7548F26A142303FB020001F06DFD23
:1034B000F06A55490968C96A884200D30124DFF8D7
:1034C000D40600680068002805D15FF0FF30DFF8FF
:1034D000D81608600AE0DFF8BC060068C068C66855
:1034E00070688542CAD2DFF8C01608606248464953
:1034F0000968C96A142202FB01000068022808D387
:10350000012406E0DFF888060068401CDFF880161A
:103510000860DFF888060068002800D00124200039
:1035200070BD78480068002804D00120DFF86C16D0
:1035300008602DE00020DFF8641608604D48006840
:10354000B0FA80F0D0F11F004B49142202FB0011A9
:103550000968002909D172B6502080F31188BFF3A1
:103560004F8FBFF36F8F62B6FEE74349142202FB11
:103570000010416849684160416810F108029142B9
:1035800002D14168496841604068C0681E490860CE
:10359000704710B50C00002809D172B6502080F396
:1035A0001188BFF34F8FBFF36F8F62B6FEE71649E6
:1035B0000968183101F0F5FC13480068001D01F09E
:1035C0000BFD00280BD1104800682A490968012228
:1035D000C06A12FA00F031EA00002649086014F1CE
:1035E000010F07D108480068011DDFF86C0301F0E6
:1035F000CCFC05E0DFF8B4050068201800F082F983
:1036000010BD00003C1001202C10012010B50C0052
:10361000002809D172B6502080F31188BFF34F8F74
:10362000BFF36F8F62B6FEE7DFF8841509681831C3
:1036300001F0ABFCDFF878050068001D01F0CCFC60
:1036400000280CD1DFF8680500680A4909680122E2
:10365000C06A12FA00F031EA000006490860DFF89B
:103660004C050068201800F04DF910BD48100120ED
:103670005810012044100120A809012010B5C0688D
:10368000C468002C09D172B6502080F31188BFF3B2
:103690004F8FBFF36F8F62B6FEE714F1180001F091
:1036A0009BFC18480068002816D1201D01F094FCEE
:1036B000DFF8000500680121E26A91400843DFF865
:1036C000F4140860211DDFF8F004E26A142303FB00
:1036D000020001F05AFC05E014F11801DFF88C0437
:1036E00001F053FCDFF8C8040068C06AE16A884250
:1036F00005D201200121DFF8AC24116000E0002098
:1037000010BD00005C100120002809D172B65020C5
:1037100080F31188BFF34F8FBFF36F8F62B6FEE760
:10372000DFF87C1409680160DFF8801409684160E3
:10373000704700004010012038B504000D00002C37
:1037400009D172B6502080F31188BFF34F8FBFF3B9
:103750006F8F62B6FEE7002D09D172B6502080F35C
:103760001188BFF34F8FBFF36F8F62B6FEE700F093
:103770006CFFDFF838040068296811F1010F01D1EE
:1037800000241AE0DFF8181409682268914204D076
:103790006168884201D301240FE06168411A2A68F8
:1037A000914209D22968081A616808182860200027
:1037B000FFF7AAFF002400E0012400F067FF2000CB
:1037C00032BD0120DFF8DC130860704704ED00E033
:1037D00080B500F065F8DFF8E00300680228F8D350
:1037E0005FF08050DFF8D4130860BFF34F8FBFF352
:1037F0006F8FEEE738B504001500002000E0401C94
:10380000102806D2425C031983F83420425C002A57
:10381000F5D1002084F84300072D00D30625E5628A
:10382000E56400202065201D01F0ACFB14F11800B8
:1038300001F0A8FB2461D5F10700A06164620020BB
:103840006065002084F8580031BD10B5002407E001
:10385000DFF86403142101FB040001F084FB641C05
:10386000072CF5D3DFF8580301F07DFBDFF8540394
:1038700001F079FBDFF8F40201F075FBDFF8480393
:1038800001F071FB344801F06EFBDFF83403DFF820
:1038900004130860DFF82C03DFF8FC12086010BD89
:1038A00010B520E00024FFF727FD002C1BD100F00D
:1038B000CCFEDFF81403C068C468201D01F08CFB47
:1038C000DFF808030068401EDFF800130860DFF827
:1038D00000030068401EDFF8F812086000F0D6FE12
:1038E000200000F060F8DFF8E8020068002808D047
:1038F000FFF7FAFCDFF8D00200680028D2D10124DB
:10390000D1E710BD10B50400DFF8A40200684460E0
:10391000DFF898020068844209D2DFF89402006858
:10392000011DDFF87402006801F03BFB10E0DFF8D6
:1039300080020068011DDFF85C02006801F031FBC5
:10394000DFF864020068844202D2DFF85C0204609F
:1039500010BD000004ED00E0280F012070B5040048
:103960000D00002D05D1A4B2A00000F011FF05004C
:10397000FFE7002D0BD05C2000F00AFF0600002EB0
:1039800001D0356304E0280000F08CFF00E0002641
:10399000002E06D0A4B2A100A522346B200001F0B5
:1039A0002FF8300070BD10B50400206B00F07AFFD6
:1039B000200000F077FF10BD7648006800680028FE
:1039C00005D15FF0FF30DFF8E011086007E07148D3
:1039D0000068C068C0684068DFF8CC1108607047B4
:1039E000DFF8F0010068002801D1012007E0DFF8CE
:1039F000E8010068002801D1022000E000207047A3
:103A000010B50400002C4FD0E06ADFF8A41109685B
:103A1000C96A884248D2A069002806D4DFF890011C
:103A20000068C06AD0F10700A0616069DFF8881102
:103A3000E26A142303FB0211884230D1201D01F0F9
:103A4000CBFA002812D1DFF87001E16A142202FBE0
:103A500001000068002809D1DFF858010068012141
:103A6000E26A91408843DFF84C110860DFF84001BA
:103A70000068C06AE062DFF83C0100680121E26A88
:103A800091400843DFF82C110860211DDFF8280160
:103A9000E26A142303FB020001F077FA04E0DFF886
:103AA00010010068C06AE06210BD0000F83D040823
:103AB00010B504000020002C57D0DFF8F41009687E
:103AC0008C4209D072B6502080F31188BFF34F8F1B
:103AD000BFF36F8F62B6FEE7216D002909D172B680
:103AE000502080F31188BFF34F8FBFF36F8F62B602
:103AF000FEE7216D491E2165E16AE26C914234D0F6
:103B0000216D002931D1201D01F066FA002812D163
:103B1000DFF8A400E16A142202FB0100006800281B
:103B200009D1DFF8900000680121E26A91408843E2
:103B3000DFF880100860E06CE062E06AD0F1070016
:103B4000A061DFF8700000680121E26A914008433B
:103B5000DFF860100860211DDFF85C00E26A1423C2
:103B600003FB020001F011FA012010BD000F01203B
:103B7000DFF83C000068002805D0DFF8340000685A
:103B8000016D491C0165DFF82800006870470000DE
:103B90004C10012030100120341001205010012061
:103BA00054100120501001204C0000204010012032
:103BB0002C10012044100120A809012004ED00E090
:103BC000D80E0120EC0E0120140F01203C10012022
:103BD00038100120481001205C10012038B5050084
:103BE0000C00002D09D172B6502080F31188BFF36C
:103BF0004F8FBFF36F8F62B6FEE700F026FD286897
:103C0000E96B2A6C02FB010068600020A863286849
:103C1000A8602868E96B491E2A6C02FB0100E86075
:103C20005FF0FF3068645FF0FF30A864002C12D1B1
:103C30002869002817D015F11000FFF71FFD012893
:103C400011D15FF08050DFF8C4180860BFF34F8FC8
:103C5000BFF36F8F07E015F1100001F084F915F143
:103C6000240001F080F900F011FD012032BDF8B50B
:103C700004000D0016000027002C09D172B6502058
:103C800080F31188BFF34F8FBFF36F8F62B6FEE7EB
:103C9000002D01D1002002E005FB04F0401C54304F
:103CA00000F076FD00280ED00700002D01D13F6006
:103CB00001E054303860FC633D6401213800FFF7B7
:103CC0008DFF87F85060002F09D172B6502080F325
:103CD0001188BFF34F8FBFF36F8F62B6FEE73800D6
:103CE000F2BD38B50400542000F052FD0500002D4F
:103CF00023D000206860002028600020A8600020F9
:103D0000E8600020A8630120E863002028645FF0D9
:103D1000FF3068645FF0FF30A86485F8504015F10B
:103D2000100001F020F915F1240001F01CF9002326
:103D300000220021280000F03CF8002D09D172B6C5
:103D4000502080F31188BFF34F8FBFF36F8F62B69F
:103D5000FEE7280032BD10B50C00002809D172B66C
:103D6000502080F31188BFF34F8FBFF36F8F62B67F
:103D7000FEE7A04209D272B6502080F31188BFF34B
:103D80004F8FBFF36F8F62B6FEE702220021FFF76D
:103D90006EFF002800D08463002809D172B650203D
:103DA00080F31188BFF34F8FBFF36F8F62B6FEE7CA
:103DB00010BDF7B504000D001E000027002C09D12E
:103DC00072B6502080F31188BFF34F8FBFF36F8F0F
:103DD00062B6FEE7002D02D1206C002801D101203F
:103DE00000E00020C0B2002809D172B6502080F354
:103DF0001188BFF34F8FBFF36F8F62B6FEE7022EBD
:103E000002D1E06B012801D1012000E00020C0B206
:103E1000002809D172B6502080F31188BFF34F8F6C
:103E2000BFF36F8F62B6FEE7FFF7DAFD002802D11D
:103E30000298002801D1012000E00020C0B2002833
:103E40000ED172B6502080F31188BFF34F8FBFF3AD
:103E50006F8F62B6FEE7200000F0E2FAFFF74CFA3F
:103E600000F0F3FBA06BE16B884201D3022E26D158
:103E700032002900200000F07DFA616A00290FD08D
:103E800014F12400FFF7FAFB012814D15FF08050F1
:103E9000DFF878160860BFF34F8FBFF36F8F0AE02B
:103EA000002808D05FF08050DFF860160860BFF38C
:103EB0004F8FBFF36F8F00F0E9FB012047E00298BE
:103EC000002803D100F0E2FB002040E0002F03D1E6
:103ED0006846FFF719FC012700F0D8FBFFF704FA4A
:103EE00000F0B3FB606C10F1010F01D100206064A1
:103EF000A06C10F1010F01D10020A06400F0C6FBFE
:103F000002A96846FFF718FC00281AD1200000F02B
:103F1000CAFA00289FD0029914F11000FFF739FB6C
:103F2000200000F07DFAFFF7E7F9002898D15FF054
:103F30008050DFF8D8150860BFF34F8FBFF36F8F45
:103F40008EE7200000F06CFAFFF7D6F90020FEBDE6
:103F50002DE9F04105000E0014001F00002D09D1CD
:103F600072B6502080F31188BFF34F8FBFF36F8F6D
:103F700062B6FEE7002E02D1286C002801D1012094
:103F800000E00020C0B2002809D172B6502080F3B2
:103F90001188BFF34F8FBFF36F8F62B6FEE7022F1A
:103FA00002D1E86B012801D1012000E00020C0B25D
:103FB000002809D172B6502080F31188BFF34F8FCB
:103FC000BFF36F8F62B6FEE700F0A0FBEFF311883E
:103FD00072B6502080F31188BFF34F8FBFF36F8FFD
:103FE00062B6A86BE96B884201D3022F1BD13A005D
:103FF0003100280000F0BEF9A86C10F1010F0DD1BE
:10400000686A00280DD015F12400FFF737FB00285F
:1040100007D0002C05D00120206002E0A86C401CD5
:10402000A864012000E0002088F31188BDE8F08139
:1040300070B505000C00002D09D172B6502080F338
:104040001188BFF34F8FBFF36F8F62B6FEE7286C06
:10405000002809D072B6502080F31188BFF34F8F2B
:10406000BFF36F8F62B6FEE72868002802D1686848
:10407000002801D1012000E00020C0B2002809D1B1
:1040800072B6502080F31188BFF34F8FBFF36F8F4C
:1040900062B6FEE700F03AFBEFF3118672B65020ED
:1040A00080F31188BFF34F8FBFF36F8F62B6A86B99
:1040B000E96B884219D2A86B401CA863A86C10F168
:1040C000010F0DD1686A00280DD015F12400FFF70B
:1040D000D5FA002807D0002C05D00120206002E08E
:1040E000A86C401CA864012000E0002086F3118821
:1040F00070BDF7B506000C001D000027002E09D189
:1041000072B6502080F31188BFF34F8FBFF36F8FCB
:1041100062B6FEE7002C02D1306C002801D10120EC
:1041200000E00020C0B2002809D172B6502080F310
:104130001188BFF34F8FBFF36F8F62B6FEE7FFF7B3
:104140004FFC002802D10298002801D1012000E094
:104150000020C0B200280ED172B6502080F3118822
:10416000BFF34F8FBFF36F8F62B6FEE7300000F0F2
:1041700057F9FFF7C1F800F068FAB06B002839D0A2
:10418000F7682100300000F036F9002D1BD1B06B2C
:10419000401EB0633068002802D1FFF7E9FC706070
:1041A0003069002822D016F11000FFF767FA0128C5
:1041B0001CD15FF08050DFF854130860BFF34F8FBD
:1041C000BFF36F8F12E0F760706A00280ED016F10F
:1041D0002400FFF753FA002808D05FF08050DFF882
:1041E0002C130860BFF34F8FBFF36F8F00F04EFAB0
:1041F000012052E00298002803D100F047FA002085
:104200004BE0002F03D16846FFF77EFA012700F04C
:104210003DFAFFF769F800F018FA706C10F1010F21
:1042200001D100207064B06C10F1010F01D10020A9
:10423000B06400F02BFA02A96846FFF77DFA002867
:1042400025D1300000F021F900288FD030680028F7
:1042500006D100F0FAF97068FFF7D2FB00F016FA09
:10426000029916F12400FFF794F9300000F0D8F815
:10427000FFF742F800287FF47EAF5FF08050DFF850
:104280008C120860BFF34F8FBFF36F8F73E730005E
:1042900000F0C6F8FFF730F80020FEBDF8B50500C5
:1042A0000F001400002D09D172B6502080F3118840
:1042B000BFF34F8FBFF36F8F62B6FEE7002F02D1BF
:1042C000286C002801D1012000E00020C0B20028A5
:1042D00009D172B6502080F31188BFF34F8FBFF31E
:1042E0006F8F62B6FEE700F011FAEFF3118672B637
:1042F000502080F31188BFF34F8FBFF36F8F62B6EA
:10430000A86B00281DD03900280000F074F8A86BB5
:10431000401EA863686C10F1010F0DD128690028B8
:104320000DD015F11000FFF7A9F9002807D0002CD7
:1043300005D00120206002E0686C401C6864012008
:1043400000E0002086F31188F2BD10B50400002CB7
:1043500009D172B6502080F31188BFF34F8FBFF39D
:104360006F8F62B6FEE7200000F0BEF8200000F07C
:1043700099FA10BDF8B5040016000025206C00283D
:1043800009D12068002831D16068FFF791FB050052
:10439000002060602AE0002E0FD1226CA668300059
:1043A00000F062FBA068216C0818A060A06861683A
:1043B00088421BD32068A06018E0226CE7683800B0
:1043C00000F052FBE068216C401AE060E068216870
:1043D000884203D26068216C401AE060022E05D149
:1043E000A06B002802D0A06B401EA063A06B401CF5
:1043F000A0632800F2BD10B50C00016C00290ED09E
:10440000C168026C5118C160C1684268914201D311
:104410000168C160026CC168200000F025FB10BD7E
:1044200010B5040000F011F90AE014F12400FFF7C0
:1044300025F9002801D0FFF7C4F9A06C401EA06444
:10444000A06C012802DB606A0028EED15FF0FF302B
:10445000A06400F01BF900F0F8F80AE014F1100075
:10446000FFF70CF9002801D0FFF7ABF9606C401E94
:104470006064606C012802DB20690028EED15FF0E7
:10448000FF30606400F002F910BD10B5040000F0C8
:10449000DCF8A06B002801D1012400E0002400F02A
:1044A000F5F8200010BD10B5040000F0CEF8A06BA8
:1044B000E16B884201D1012400E0002400F0E6F81D
:1044C000200010BD002200E0521C082A0BD2104B25
:1044D00053F83230002BF7D10D4B43F832100C4912
:1044E00011EBC20148607047002100E0491C082917
:1044F00009D2074A12EBC10252688242F6D100206B
:10450000034A42F8310070470000000004ED00E06B
:10451000B00C012038B504000D0000F096F8606C76
:1045200010F1010F01D100206064A06C10F1010FA7
:1045300001D10020A06400F0A9F8A06B002804D1EC
:10454000290014F12400FFF761F82000FFF768FF4D
:1045500031BD0268531C036011707047001F5FF08B
:1045600080730360001F0160001F0FF215010160DE
:1045700014380260001F7FF002010160203870478C
:104580007748006810F1010F09D072B6502080F30F
:104590001188BFF34F8FBFF36F8F62B6FEE772B61D
:1045A000502080F31188BFF34F8FBFF36F8F62B637
:1045B000FEE700B583B06B4801780191FF210170DF
:1045C00001788DF800109DF8001011F05001664A36
:1045D00011700721654A116009E064490968491EA4
:1045E000624A11609DF8001049008DF800109DF896
:1045F00000100906F1D45D49096809025B4A11609F
:104600005A49096811F4E061584A11600199017032
:104610005748006850F470005549086054480068D5
:1046200050F070405249086000F063F800204C4997
:10463000086000F027FF4F48006850F040404D49A7
:10464000086000F013FF00200EBD72B6502080F30A
:104650001188BFF34F8FBFF36F8F62B64048006879
:10466000401C3F4908603E48006801280DD142487F
:104670000068000609D072B6502080F31188BFF39D
:104680004F8FBFF36F8F62B6FEE770473448006804
:10469000002809D172B6502080F31188BFF34F8FE4
:1046A000BFF36F8F62B6FEE72D480068401E2C49AD
:1046B00008602B480068002802D1002080F3118890
:1046C000704780B5EFF3118072B6502080F31188E7
:1046D000BFF34F8FBFF36F8F62B6FEF791FE0028D6
:1046E00003D05FF0805024490860002080F31188D7
:1046F00001BD224800684FF47A71B0FBF1F0401E12
:104700001F49086007201F4908607047EFF30580C4
:10471000102811D31C490968405C13490978C0B2BC
:10472000884209D272B6502080F31188BFF34F8FB0
:10473000BFF36F8F62B6FEE70C4800681349096843
:1047400011F4E061884209D272B6502080F31188DA
:10475000BFF34F8FBFF36F8F62B6FEE77047000065
:104760003C00002000E400E09E1001202010012009
:1047700020ED00E034EF00E004ED00E04800002010
:1047800014E000E010E000E0703E04080CED00E0F2
:1047900070B505000024FEF7A7FD924800680028C8
:1047A00001D100F0BDF890480068054268D1002DA5
:1047B00017D08E480068451915F0070F11D015F174
:1047C000080015F00701451A15F0070F09D072B659
:1047D000502080F31188BFF34F8FBFF36F8F62B605
:1047E000FEE7002D4CD082480068A84248D381489B
:1047F00080490E6801E0300036687168A94202D233
:1048000031680029F7D1774909688E4238D00168AC
:10481000764A126854183168016074480068400094
:104820007168491B884214D2A81910F007010029A9
:1048300009D072B6502080F31188BFF34F8FBFF3B9
:104840006F8F62B6FEE77168491B4160756000F0CA
:1048500099F8674800687168401A654908606448BB
:10486000006865490968884203D261480068624966
:10487000086070685C490968084370600020306017
:10488000FEF73AFD14F00700002809D072B6502058
:1048900080F31188BFF34F8FBFF36F8F62B6FEE7CF
:1048A000200070BD10B50400002C38D04F480068BF
:1048B000241A60684C490968084209D172B6502030
:1048C00080F31188BFF34F8FBFF36F8F62B6FEE79F
:1048D0002068002809D072B6502080F31188BFF3F9
:1048E0004F8FBFF36F8F62B6FEE760683E4909687D
:1048F000084214D02068002811D160683A4909683C
:1049000088436060FEF7F0FC394800686168081869
:1049100037490860200000F035F8FEF7EDFC10BDC7
:104920004FF47052354911F0070F05D0C91DC90861
:10493000C900501A314A121808002E490860002197
:104940002C4B59601118294A1268891AC908C900E4
:10495000244A11600022234B1B685A600022214B1D
:104960001B681A60091A41601E49096801604168A4
:10497000214A116040681E4908605FF000401A49F2
:10498000086070471B4900E009680A688242FBD34F
:104990000A004B689A18824204D14A68406880181D
:1049A00048600800020043689A180B689A4211D1C7
:1049B0000A680C4B1B689A4208D042680B685B6817
:1049C0009A1842600A681268026005E0054A126897
:1049D000026001E00A680260814200D0086070470E
:1049E000000000000410012010100120683E04089F
:1049F00008100120A40F01200C1001206891002054
:104A000062F30F2262F31F42401810F0030308D034
:104A1000C91A1FD3DB0748BF00F8012D28BF20F8B3
:104A2000022D130030B414461546103928BF20E972
:104A30003C00FAD8490728BF20E90C0048BF40F8DD
:104A4000042D890028BF20F8022D48BF00F8012D51
:104A500030BC7047C91818BF00F8012DCB0728BF1C
:104A600000F8012D7047000062B38B0708D0521E7A
:104A700011F8013B00F8013B00F024808B07F6D1D0
:104A8000830740F0208000BF103A07D330B4B1E86C
:104A90003810103AA0E83810F9D230BC530724BFC0
:104AA000B1E80810A0E8081044BF51F8043B40F8F2
:104AB000043BD20724BF31F8022B20F8022B44BF5D
:104AC0000B7803707047083A07D3B1E80810083A2A
:104AD00040F8043B40F804CBF7D25307E4E700006A
:104AE00038B504000D0000F0DBFC00F089FF01F098
:104AF00013FAF02020814FF4A07060816420E073ED
:104B000032202074208900B24000A88001F02DFAE4
:104B1000286031BD10B504000221C94801F05EFBD8
:104B2000002801D1012200E00022D2B20221C448B3
:104B300001F05DFB01F0FDF901F017FA206010BDF6
:104B400070477047704710B504000820FFF720FE3B
:104B5000606100206169086000206169888000F060
:104B6000A8F80020A0810320A0730020A061616943
:104B70002000FFF7B5FF5FF0FF3010BD80B5406942
:104B8000FFF7C8FF01BD10B4B0F90C105A290FD0BF
:104B9000B4291CD0B1F5877F2CD0B0F92E10426912
:104BA000B2F90420B0F92C305B0011FB02312FE088
:104BB000B0F90810B0F92C20891A491E4269B2F9DF
:104BC0000420B0F92E305B0002FB013120E0B0F987
:104BD0000A10B0F92E20891A491E4269B2F9042040
:104BE000B0F90830B0F92C401B1B5B1E5B0002FBC8
:104BF00001310DE0B0F92C104269B2F90420B0F98E
:104C00000A30B0F92E401B1B5B1E5B0011FB02310A
:104C1000828F406900680A5210BC704710B4B0F926
:104C20000C105A290FD0B4291CD0B1F5877F2CD095
:104C3000B0F92E104269B2F90420B0F92C305B00B3
:104C400011FB02312FE0B0F90810B0F92C20891ABD
:104C5000491E4269B2F90420B0F92E305B0002FB14
:104C6000013120E0B0F90A10B0F92E20891A491E4E
:104C70004269B2F90420B0F90830B0F92C401B1B8E
:104C80005B1E5B0002FB01310DE0B0F92C104269A4
:104C9000B2F90420B0F90A30B0F92E401B1B5B1E9C
:104CA0005B0011FB023140690068085A80B210BCF9
:104CB00070476448006850F40000624908600220B0
:104CC00061490860022061490860604800686049E5
:104CD00008435E49086002205E4908605D4800683C
:104CE0005B4908435B490860704730B45A4C5B4DE0
:104CF0002C60029C5A4D2C605A4C20605A4803602C
:104D000092B252EA0140594908605448006850F094
:104D100001005249086051480068C007FBD430BC0C
:104D2000704710B44D490968C907FBD4B0F90C109D
:104D30005A291AD0B42934D0B1F5877F53D0B0F9AD
:104D40002E104269B2F90420B0F92C305B0011FB3F
:104D50000231B0F90820B0F93030D21AB0F9303051
:104D6000B0F9324054EA034358E0B0F90810B0F902
:104D70002C20891AB0F93020891A4269B2F904202E
:104D8000B0F92E305B0002FB0131B0F90A20B0F916
:104D90003230D21AB0F93230B0F9304054EA03431D
:104DA0003CE0B0F90A10B0F92E20891AB0F932208F
:104DB000891A4269B2F90420B0F90830B0F92C40E0
:104DC0001B1BB0F930401B1B5B0002FB0131B0F92B
:104DD0000820B0F93030D21AB0F93030B0F9324092
:104DE00054EA03431AE0B0F92C104269B2F90420E6
:104DF000B0F90A30B0F92E401B1BB0F932401B1B32
:104E00005B0011FB0231B0F90A20B0F93230D21A3E
:104E1000B0F93230B0F9304054EA034344692468B1
:104E20000919104C216010490A6010490B60808FED
:104E30000B4908600E480949086010BC7047000023
:104E4000002002403038024034B002401CB0024022
:104E5000000002FF24B002400002030000B0024044
:104E600038B002403CB0024040B0024044B0024082
:104E70000100030080B5818F00910023B0F90A2062
:104E8000B0F9081040690068FFF72FFF01BD10B5A9
:104E90000400B4F92C00002805D0022848D015D30E
:104EA000032852D05EE0A07B216CC9B2884259D061
:104EB00094F840000028032807D8216CC9B22000CC
:104EC000FFF740FE206CA0734CE04BE0B4F90C00FF
:104ED000216C09B2884245D0B4F94000002807D0BF
:104EE0005A2816D0B42803D0B0F5877F11D01EE021
:104EF000B4F90C005A2804D0B4F90C00B0F5877F3F
:104F000004D1B4F90800618921816081206CA081FD
:104F100028E0B4F90C00002803D0B4F90C00B42840
:104F200004D1B4F90800618921816081EEE719E0BC
:104F3000206C652801D364202064216CC9B2200054
:104F4000FFF7FEFD206CE0730CE0206C652801D3B8
:104F500064202064216CC9B22000FFF7F2FD206CB0
:104F60002074FFE710BD10F1080141605FF0FF31D0
:104F7000816010F10801C16010F108010161002198
:104F80000160704700210161704742684A60936880
:104F90008B6093685960916008610168491C0160E9
:104FA000704710B40B6813F1010F01D1026907E0DB
:104FB00010F1080200E0526854682468A342FAD253
:104FC00053684B604B6899608A6051600861016862
:104FD000491C016010BC70470169826843689A608F
:104FE000426883685A604A68824201D182684A6096
:104FF000002202610868401E0860086870470000CF
:105000001FB5002400F0B0F9DFF8C40300680028E1
:1050100011D0002003900020029000200190022077
:10502000009000234FF48072DFF8A8130FF2DD0028
:10503000FEF71EF80400002C09D172B6502080F350
:105040001188BFF34F8FBFF36F8F62B6FEE720006A
:1050500004B010BD3EB504001D000020DFF8703321
:105060001B68002B21D0009101920294062915DAC9
:10507000FEF7B6FC022808D10023069A6946DFF83D
:1050800050030068FEF795FE0FE0002300226946FA
:10509000DFF83C030068FEF78CFE06E000232A00E0
:1050A0006946CB480068FEF753FF3EBD70B582B03D
:1050B00004000D00C8480068C068C668301DFFF7CE
:1050C0008BFFF06901281CD123002A00B069011967
:1050D000300000F07AF8012813D10020009000235E
:1050E000220000213000FFF7B5FF002809D172B679
:1050F000502080F31188BFF34F8FBFF36F8F62B6DC
:10510000FEE73000716A884773BD000080B56846CD
:1051100000F033F8009900F003F800F075F8F6E7B6
:1051200070B582B004000D00FEF7DEF8684600F0AE
:1051300038F80600009800281CD1002D08D1A6429E
:1051400006D3FEF7D9F831002000FFF7AFFF13E0D8
:10515000A11B9F480068FFF7DDF9FEF7CDF8002896
:105160000AD15FF080509D490860BFF34F8FBFF3B5
:105170006F8F01E0FEF7C0F873BD974909680968B1
:10518000002901D1012100E00021C9B201600068BD
:10519000002804D190480068C068006800E0002042
:1051A000704738B50400FEF727F905008C48006801
:1051B000854204D200F097F80120206001E0002031
:1051C000206087480560280032BD10B5002441608A
:1051D00000618A420BD3D11A8269914201D3012422
:1051E00010E0011D7F480068FFF7DBFE0AE09A42ED
:1051F00003D2994201D3012404E0011D76480068DE
:10520000FFF7CFFE200010BD10B586B0FFE70023EA
:10521000002201A96E480068FEF76BFF002860D0ED
:1052200001980028F3D4039C6069002802D0201D57
:10523000FFF7D2FE04A8FFF7B4FF02000198002890
:105240000ED002280CD00BD304282FD02DD3062843
:1052500006D041D3082828D002D3092826D03FE021
:10526000029B0298A16909182000FFF7AEFF0128F0
:10527000CDD12000616A8847E0690128C7D10020AC
:10528000009000230298A1690A1800212000FFF76E
:10529000E1FE0028BBD172B6502080F31188BFF325
:1052A0004F8FBFF36F8F62B6FEE7B0E70298A06141
:1052B000A069002809D172B6502080F31188BFF38D
:1052C0004F8FBFF36F8F62B6FEE71300A06981189E
:1052D0002000FFF77AFF9AE72000FFF7E3FA96E74E
:1052E00095E706B010BD38B506E068602D61291D50
:1052F00039480068FFF755FE374800680068002805
:1053000029D035480068C068046833480068C06820
:10531000C568281DFFF760FE2800696A8847E869AC
:105320000128E9D1A86900198442DED30020009049
:105330000023220000212800FFF78CFE002809D15D
:1053400072B6502080F31188BFF34F8FBFF36F8F79
:1053500062B6FEE7D0E720480068224909681E4A85
:1053600011602049086031BD80B5FFF76EF918481B
:105370000068002829D11C48FFF7F5FD1B48FFF7FE
:10538000F2FD1948144908601848164908600022BF
:105390000C210A20FEF76BFC0D4908600C480068E0
:1053A000002809D172B6502080F31188BFF34F8FC7
:1053B000BFF36F8F62B6FEE705480068002804D08F
:1053C0000B4903480068FFF77DF8FFF75FF901BD5F
:1053D00068100120003E04086010012004ED00E088
:1053E0006C100120641001203C0F0120500F01209F
:1053F000083E0408EFF30980BFF36F8F254B1A684E
:105400001EF0100F08BF20ED108A20E9F04F106049
:1054100008B44FF0500072B680F31188BFF34F8F7D
:10542000BFF36F8F62B6FEF77CF84FF0000080F399
:10543000118808BC19680868B0E8F04F1EF0100F1A
:1054400008BFB0EC108A80F30988BFF36F8F7047F4
:10545000104B19680868B0E8F04F80F30988BFF373
:105460006F8F4FF0000080F3118870470A48006882
:10547000006880F3088862B661B6BFF34F8FBFF350
:105480006F8F00DFDFF81400016841F470010160E4
:10549000704700002C10012008ED00E088ED00E0CE
:1054A00080B5DFF88803DFF8881308600220DFF892
:1054B000841308600720DFF87C1348600420DFF8BD
:1054C000741388600720DFF86C13C8600220DFF8CF
:1054D000641308610220DFF85C1348610220DFF8E2
:1054E000541388610120DFF8481348600020DFF87A
:1054F000401388600420DFF83813C8601020DFF8FC
:10550000301308614020DFF8281348614FF4C07061
:10551000DFF81C1388610020DFF81413C8614FF412
:105520000060DFF80C1308620020DFF80413486203
:105530004FF40050DFF8F812886200F06DF8DFF8E1
:10554000F412DFF8EC0200F08DFE40F26A5000F039
:1055500001F801BD10B582B00400002000900120C8
:10556000DFF8D41208600820DFF8CC124860012070
:10557000DFF8C41288600020DFF8BC12C8604FF664
:10558000FF72DFF8B412DFF8A80200F08EFE0120EF
:1055900001F007F80220DFF8A01208600820DFF809
:1055A000981248600120DFF8901288600020DFF830
:1055B0008812C8604FF6FF729F499D4800F075FE43
:1055C00003209D49086008209B49486004209A49AF
:1055D000886000209849C8604FF6FF729649944849
:1055E00000F063FE4FF40C700090042092490860B4
:1055F00008209149486001208F49886000988E49B1
:10560000C8604FF6FF728C49894800F04EFE2100B9
:10561000874800F066FE13BD10B586B0844C0020AC
:1056200000908648006850F0010084490860834873
:10563000006810F001000090009800200090804861
:10564000006850F480007E4908607D48006810F4CE
:10565000800000900098002000907948006850F089
:105660000200774908607648006810F00200009058
:105670000098002000907248006850F004007049C3
:1056800008606F48006810F0040000900098002047
:1056900000906B48006850F008006949086068484D
:1056A000006810F008000090009800200090644806
:1056B000006850F01000624908606148006810F00E
:1056C000100000900098002000905D48006850F0A5
:1056D00020005B4908605A48006810F020000090E4
:1056E0000098002000905648006850F0400054494F
:1056F00008605348006810F04000009000984FF692
:105700003F000190022002900020039003200490AB
:105710000C20059001A94B4800F066FC0120019087
:105720000220029000200390032004900C2005909A
:1057300001A9454800F058FC48F2331001900220BE
:10574000029000200390032004900C20059001A9F2
:105750003E4800F049FC4FF6837001900220029011
:1057600000200390032004900C20059001A93848E4
:1057700000F03AFC4CF203700190022002900020ED
:105780000390032004900C20059001A9314800F0FB
:105790002BFC602001900220029000200390032047
:1057A00004900C20059001A92B4800F01DFC00205E
:1057B0002A49486080202949886000202749C8601C
:1057C0004FF48060254908614FF4805023494861B7
:1057D0004FF480402149886100202049C8615FF46E
:1057E00000301E49086200201C49486203201B4902
:1057F000886200201949C8620020184908631848C7
:10580000164908601548206314488463134800F063
:1058100028FF124800F0E4FE00220521382001F0A4
:10582000C9F8382001F0D7F806B010BD400100A03B
:10583000180E01206C0E0120640F01203838024040
:1058400030380240001402400008024000180240B4
:1058500000100240000C024000040240080B01202E
:105860001064024000B585B0022000900120019034
:1058700000200290002003906946DFF8400400F009
:10588000B3FB42F2900000900120019000200290B2
:10589000032003906946DFF8280400F0A5FB0022EE
:1058A0009021DFF81C0400F0A2FC05B000BD00B59B
:1058B00087B000200090DFF80C04006850F480509E
:1058C000DFF800140860DFF8FC03006810F4805073
:1058D00000900098DFF8F003DFF8F01308604FF451
:1058E0008270DFF8E81348600020DFF8E01388607A
:1058F0004FF4E060DFF8D413C8600020DFF8CC1369
:1059000008610020DFF8C41348615FF48020EF498C
