:020000040800F2
:10000000E84E0020F52308081124080815240808E4
:10001000192408081D2408082124080800000000ED
:100020000000000000000000000000002524080877
:1000300029240808000000002D240808E79B070871
:1000400035240808392408083D24080841240808F4
:1000500045240808492408084D24080851240808A4
:1000600055240808592408085D2408086124080854
:1000700065240808692408086D2408087124080804
:10008000752408087924080823D70708812408085C
:1000900085240808892408088D2408089124080864
:1000A00095240808992408089D240808A124080814
:1000B000A5240808A9240808AD240808B1240808C4
:1000C000B5240808B9240808BD240808C124080874
:1000D000C5240808C9240808CD240808D124080824
:1000E000D5240808D9240808DD240808E1240808D4
:1000F000E5240808E9240808ED240808F124080884
:10010000F5240808F9240808FD2408080125080832
:10011000D1D907080925080893FB07081125080805
:10012000AB770708CBE307081D2508082125080839
:1001300025250808292508082D250808312508083F
:1001400035250808392508083D25080841250808EF
:100150004FE307084925080893E3070851250808D5
:1001600055250808592508085D250808612508084F
:1001700065250808692508086D25080871250808FF
:1001800075250808792508087D25080881250808AF
:1001900085250808892508088D250808912508085F
:1001A00095250808992508089D25080800000000E5
:1001B000000000000000000000000000000000003F
:1001C000000000000000000000000000000000002F
:1001D000000000000000000000000000000000001F
:1001E000000000000000000000000000000000000F
:1021E0000000000020006108820841080000000093
:1021F00000000000000000000000000000000000DF
:1022000000000000000000000000000000000000CE
:1022100000000000000000000000000000000000BE
:1022200000000000000000000000000000000000AE
:10223000000000000000000000000000000000009E
:10224000000000000000000000000000000000008E
:10225000000000000000000000000000000000007E
:10226000000000000000000000000000000000006E
:10227000000000000000000000000000000000005E
:10228000000000000000000000000000000000004E
:10229000000000000000000000000000000000003E
:1022A000000000000000000000000000000000002E
:1022B000000000000000000000000000000000001E
:1022C000000000000000000000000000000000000E
:1022D00000000000000000000000000000000000FE
:1022E00000000000000000000000000000000000EE
:1022F00000000000000000000000000000000000DE
:1023000000000000000000000000000000000000CD
:1023100000000000000000000000000000000000BD
:1023200000000000000000000000000000000000AD
:10233000000000000000000000000000000000009D
:10234000000000000000000000000000000000008D
:10235000000000000000000000000000000000007D
:10236000000000000000000000000000000000006D
:10237000000000000000000000000000000000005D
:10238000000000000000000000000000000000004D
:10239000000000000000000000000000000000003D
:1023A000000000000000000000000000000000002D
:1023B000000000000000000000000000000000001D
:1023C000000061088631EB5A2C632842C3182000B4
:1023D00000000000000000000000000000000000FD
:1023E00000000000000000000000000000000000ED
:1023F00000000000000000000000000000000000DD
:1024000000000000000000000000000000000000CC
:1024100000000000000000000000000000000000BC
:1024200000000000000000000000000000000000AC
:10243000000000000000000000000000000000009C
:10244000000000000000000000000000000000008C
:10245000000000000000000000000000000000007C
:10246000000000000000000000000000000000006C
:10247000000000000000000000000000000000005C
:10248000000000000000000000000000000000004C
:10249000000000000000000000000000000000003C
:1024A000000000000000000000000000000000002C
:1024B000000000000000000000000000000000001C
:1024C000000000000000000000000000000000000C
:1024D00000000000000000000000000000000000FC
:1024E00000000000000000000000000000000000EC
:1024F00000000000000000000000000000000000DC
:1025000000000000000000000000000000000000CB
:1025100000000000000000000000000000000000BB
:1025200000000000000000000000000000000000AB
:10253000000000000000000000000000000000009B
:10254000000000000000000000000000000000008B
:10255000000000000000000000000000000000007B
:10256000000000000000000000000000000000006B
:10257000000000000000000000000000000000005B
:10258000000000000000000000000000000000004B
:10259000000000000000000000000000000000003B
:1025A0008210CB5AD394B7B5B7B555A58E6B2421FD
:1025B00020000000000000000000000000000000FB
:1025C000000000000000000000000000000000000B
:1025D00000000000000000000000000000000000FB
:1025E00000000000000000000000000000000000EB
:1025F00000000000000000000000000000000000DB
:1026000000000000000000000000000000000000CA
:1026100000000000000000000000000000000000BA
:1026200000000000000000000000000000000000AA
:10263000000000000000000000000000000000009A
:10264000000000000000000000000000000000008A
:10265000000000000000000000000000000000007A
:10266000000000000000000000000000000000006A
:10267000000000000000000000000000000000005A
:10268000000000000000000000000000000000004A
:10269000000000000000000000000000000000003A
:1026A000000000000000000000000000000000002A
:1026B000000000000000000000000000000000001A
:1026C000000000000000000000000000000000000A
:1026D00000000000000000000000000000000000FA
:1026E00000000000000000000000000000000000EA
:1026F00000000000000000000000000000000000DA
:1027000000000000000000000000000000000000C9
:1027100000000000000000000000000000000000B9
:1027200000000000000000000000000000000000A9
:102730000000000000000000000000000000000099
:102740000000000000000000000000000000000089
:102750000000000000000000000000000000000079
:102760000000000000000000000000000000000069
:1027700000000000000000000000000000006108F0
:10278000494255A518BE18BE18BE18BE96AD4D6379
:10279000E31800000000000000000000000000003E
:1027A0000000000000000000000000000000000029
:1027B0000000000000000000000000000000000019
:1027C0000000000000000000000000000000000009
:1027D00000000000000000000000000000000000F9
:1027E00000000000000000000000000000000000E9
:1027F00000000000000000000000000000000000D9
:1028000000000000000000000000000000000000C8
:1028100000000000000000000000000000000000B8
:1028200000000000000000000000000000000000A8
:102830000000000000000000000000000000000098
:102840000000000000000000000000000000000088
:102850000000000000000000000000000000000078
:102860000000000000000000000000000000000068
:102870000000000000000000000000000000000058
:102880000000000000000000000000000000000048
:102890000000000000000000000000000000000038
:1028A0000000000000000000000000000000000028
:1028B0000000000000000000000000000000000018
:1028C0000000000000000000000000000000000008
:1028D00000000000000000000000000000000000F8
:1028E00000000000000000000000000000000000E8
:1028F00000000000000000000000000000000000D8
:1029000000000000000000000000000000000000C7
:1029100000000000000000000000000000000000B7
:1029200000000000000000000000000000000000A7
:102930000000000000000000000000000000000097
:1029400000000000000000000000000000008208FD
:10295000242186292421820820000000000024214F
:10296000F07B38C659C659C659C659C639C6D3941C
:10297000E839000000000000000000000000000036
:102980000000000000000000000000000000000047
:102990000000000000000000000000000000000037
:1029A0000000000000000000000000000000000027
:1029B0000000000000000000000000000000000017
:1029C0000000000000000000000000000000000007
:1029D00000000000000000000000000000000000F7
:1029E00000000000000000000000000000000000E7
:1029F00000000000000000000000000000000000D7
:102A000000000000000000000000000000000000C6
:102A100000000000000000000000000000000000B6
:102A200000000000000000000000000000000000A6
:102A30000000000000000000000000000000000096
:102A40000000000000000000000000000000000086
:102A50000000000000000000000000000000000076
:102A60000000000000000000000000000000000066
:102A70000000000000000000000000000000000056
:102A80000000000000000000000000000000000046
:102A90000000000000000000000000000000000036
:102AA0000000000000000000000000000000000026
:102AB0000000000000000000000000000000000016
:102AC0000000000000000000000000000000000006
:102AD00000000000000000000000000000000000F6
:102AE00000000000000000000000000000000000E6
:102AF00000000000000000000000000000000000D6
:102B000000000000000000000000000000000000C5
:102B100000000000000000000000000000000000B5
:102B200000000000000000000000410086298D5BCD
:102B3000B17C1385B27C8D5B65214100000086313C
:102B4000B3947ACE9ACE9ACE9ACE9ACE9ACE75ADCC
:102B50008A4A200000000000000000000000000081
:102B60000000000000000000000000000000000065
:102B70000000000000000000000000000000000055
:102B80000000000000000000000000000000000045
:102B90000000000000000000000000000000000035
:102BA0000000000000000000000000000000000025
:102BB0000000000000000000000000000000000015
:102BC0000000000000000000000000000000000005
:102BD00000000000000000000000000000000000F5
:102BE00000000000000000000000000000000000E5
:102BF00000000000000000000000000000000000D5
:102C000000000000000000000000000000000000C4
:102C100000000000000000000000000000000000B4
:102C200000000000000000000000000000000000A4
:102C30000000000000000000000000000000000094
:102C40000000000000000000000000000000000084
:102C50000000000000000000000000000000000074
:102C60000000000000000000000000000000000064
:102C70000000000000000000000000000000000054
:102C80000000000000000000000000000000000044
:102C90000000000000000000000000000000000034
:102CA0000000000000000000000000000000000024
:102CB0000000000000000000000000000000000014
:102CC0000000000000000000000000000000000004
:102CD00000000000000000000000000000000000F4
:102CE00000000000000000000000000000000000E4
:102CF00000000000000000000000000000000000D4
:102D0000000000000000000020002421CE63958D0B
:102D1000F695179E169E958DCE5B44212000452981
:102D20005184BBD6FCDEFCDEFCDEFCDEDBDE55A522
:102D300049422000000000000000000000000000E8
:102D40000000000000000000000000000000000083
:102D50000000000000000000000000000000000073
:102D60000000000000000000000000000000000063
:102D70000000000000000000000000000000000053
:102D80000000000000000000000000000000000043
:102D90000000000000000000000000000000000033
:102DA0000000000000000000000000000000000023
:102DB0000000000000000000000000000000000013
:102DC0000000000000000000000000000000000003
:102DD00000000000000000000000000000000000F3
:102DE00000000000000000000000000000000000E3
:102DF00000000000000000000000000000000000D3
:102E000000000000000000000000000000000000C2
:102E100000000000000000000000000000000000B2
:102E200000000000000000000000000000000000A2
:102E30000000000000000000000000000000000092
:102E40000000000000000000000000000000000082
:102E50000000000000000000000000000000000072
:102E60000000000000000000000000000000000062
:102E70000000000000000000000000000000000052
:102E80000000000000000000000000000000000042
:102E90000000000000000000000000000000000032
:102EA0000000000000000000000000000000000022
:102EB0000000000000000000000000000000000012
:102EC0000000000000000000000000000000000002
:102ED00000000000000000000000000000000000F2
:102EE00000000000000000006108AA423475D68589
:102EF000D685D685D685D6853375CB4241086208FE
:102F0000AA5238C65DEF5DEF5DEF5DEFBBD6107C7A
:102F1000242100000000000000000000000000006C
:102F200000000000000000000000000000000000A1
:102F30000000000000000000000000000000000091
:102F40000000000000000000000000000000000081
:102F50000000000000000000000000000000000071
:102F60000000000000000000000000000000000061
:102F70000000000000000000000000000000000051
:102F80000000000000000000000000000000000041
:102F90000000000000000000000000000000000031
:102FA0000000000000000000000000000000000021
:102FB0000000000000000000000000000000000011
:102FC0000000000000000000000000000000000001
:102FD00000000000000000000000000000000000F1
:102FE00000000000000000000000000000000000E1
:102FF00000000000000000000000000000000000D1
:1030000000000000000000000000000000000000C0
:1030100000000000000000000000000000000000B0
:1030200000000000000000000000000000000000A0
:103030000000000000000000000000000000000090
:103040000000000000000000000000000000000080
:103050000000000000000000000000000000000070
:103060000000000000000000000000000000000060
:103070000000000000000000000000000000000050
:103080000000000000000000000000000000000040
:103090000000000000000000000000000000000030
:1030A0000000000000000000000000000000000020
:1030B0000000000000000000000000000000000010
:1030C0000000000000000000C3104C4B75759575A2
:1030D00095759575957595757575AE53821000004B
:1030E000C318CF7339C61CE71CE79AD6B294A73130
:1030F0004108000000000000000000000000000087
:1031000000000000000000000000000000000000BF
:1031100000000000000000000000000000000000AF
:10312000000000000000000000000000000000009F
:10313000000000000000000000000000000000008F
:10314000000000000000000000000000000000007F
:10315000000000000000000000000000000000006F
:10316000000000000000000000000000000000005F
:10317000000000000000000000000000000000004F
:10318000000000000000000000000000000000003F
:10319000000000000000000000000000000000002F
:1031A000000000000000000000000000000000001F
:1031B000000000000000000000000000000000000F
:1031C00000000000000000000000000000000000FF
:1031D00000000000000000000000000000000000EF
:1031E00000000000000000000000000000000000DF
:1031F00000000000000000000000000000000000CF
:1032000000000000000000000000000000000000BE
:1032100000000000000000000000000000000000AE
:10322000000000000000000000000000000000009E
:10323000000000000000000000000000000000008E
:10324000000000000000000000000000000000007E
:10325000000000000000000000000000000000006E
:10326000000000000000000000000000000000005E
:10327000000000000000000000000000000000004E
:10328000000000000000000000000000000000003E
:10329000000000000000000041080419C731C731D8
:1032A0000421200000000000C2104C43345D555D35
:1032B000556555655565555D34658E4B8208000032
:1032C0000000C31808426D6BAE73AA52242120007F
:1032D0000000200082100421C318410800000000F3
:1032E00000000000000000000000000000000000DE
:1032F00000000000000000000000000000000000CE
:1033000000000000000000000000000000000000BD
:1033100000000000000000000000000000000000AD
:10332000000000000000000000000000000000009D
:10333000000000000000000000000000000000008D
:10334000000000000000000000000000000000007D
:10335000000000000000000000000000000000006D
:10336000000000000000000000000000000000005D
:10337000000000000000000000000000000000004D
:10338000000000000000000000000000000000003D
:10339000000000000000000000000000000000002D
:1033A000000000000000000000000000000000001D
:1033B000000000000000000000000000000000000D
:1033C00000000000000000000000000000000000FD
:1033D00000000000000000000000000000000000ED
:1033E00000000000000000000000000000000000DD
:1033F00000000000000000000000000000000000CD
:1034000000000000000000000000000000000000BC
:1034100000000000000000000000000000000000AC
:10342000000000000000000000000000000000009C
:10343000000000000000000000000000000000008C
:10344000000000000000000000000000000000007C
:10345000000000000000000000000000000000006C
:10346000000000000000000000000000000000005C
:10347000000000000000C318EC5A928C35A535A559
:10348000B394CB52E318000061086932924CD344E4
:10349000D344D344D344D344924C8A3A200000000E
:1034A000000000002000410841082000000000004A
:1034B00020002421AA522C6BEB62C7396110000056
:1034C00000000000000000000000000000000000FC
:1034D00000000000000000000000000000000000EC
:1034E00000000000000000000000000000000000DC
:1034F00000000000000000000000000000000000CC
:1035000000000000000000000000000000000000BB
:1035100000000000000000000000000000000000AB
:10352000000000000000000000000000000000009B
:10353000000000000000000000000000000000008B
:10354000000000000000000000000000000000007B
:10355000000000000000000000000000000000006B
:10356000000000000000000000000000000000005B
:10357000000000000000000000000000000000004B
:10358000000000000000000000000000000000003B
:10359000000000000000000000000000000000002B
:1035A000000000000000000000000000000000001B
:1035B000000000000000000000000000000000000B
:1035C00000000000000000000000000000000000FB
:1035D00000000000000000000000000000000000EB
:1035E00000000000000000000000000000000000DB
:1035F00000000000000000000000000000000000CB
:1036000000000000000000000000000000000000BA
:1036100000000000000000000000000000000000AA
:10362000000000000000000000000000000000009A
:10363000000000000000000000000000000000008A
:10364000000000000000000000000000000000007A
:10365000000000008208CB5275ADF8BDF8BDF8BD82
:10366000F8BD55A5EB5A8210200004196D43924411
:10367000B334B334B33C92444D43241900000000EA
:10368000000020006108A210A210610820002000A4
:103690008210494A6D73AE7B8D73CB5A04210000B2
:1036A000000000000000000000000000000000001A
:1036B000000000000000000000000000000000000A
:1036C00000000000000000000000000000000000FA
:1036D00000000000000000000000000000000000EA
:1036E00000000000000000000000000000000000DA
:1036F00000000000000000000000000000000000CA
:1037000000000000000000000000000000000000B9
:1037100000000000000000000000000000000000A9
:103720000000000000000000000000000000000099
:103730000000000000000000000000000000000089
:103740000000000000000000000000000000000079
:103750000000000000000000000000000000000069
:103760000000000000000000000000000000000059
:103770000000000000000000000000000000000049
:103780000000000000000000000000000000000039
:103790000000000000000000000000000000000029
:1037A0000000000000000000000000000000000019
:1037B0000000000000000000000000000000000009
:1037C00000000000000000000000000000000000F9
:1037D00000000000000000000000000000000000E9
:1037E00000000000000000000000000000000000D9
:1037F00000000000000000000000000000000000C9
:1038000000000000000000000000000000000000B8
:1038100000000000000000000000000000000000A8
:103820000000000000000000000000000000000098
:10383000000020004529929459C659C659C659C658
:1038400039C639C6B2948629200020004519EB3AC2
:10385000CF433144CF43EB32451920000000000034
:103860004108242108428A528A5228426529452962
:1038700007422C6B8E73AE7B8E73EB624429000083
:103880000000000000000000000000000000000038
:103890000000000000000000000000000000000028
:1038A0000000000000000000000000000000000018
:1038B0000000000000000000000000000000000008
:1038C00000000000000000000000000000000000F8
:1038D00000000000000000000000000000000000E8
:1038E00000000000000000000000000000000000D8
:1038F00000000000000000000000000000000000C8
:1039000000000000000000000000000000000000B7
:1039100000000000000000000000000000000000A7
:103920000000000000000000000000000000000097
:103930000000000000000000000000000000000087
:103940000000000000000000000000000000000077
:103950000000000000000000000000000000000067
:103960000000000000000000000000000000000057
:103970000000000000000000000000000000000047
:103980000000000000000000000000000000000037
:103990000000000000000000000000000000000027
:1039A0000000000000000000000000000000000017
:1039B0000000000000000000000000000000000007
:1039C00000000000000000000000000000000000F7
:1039D00000000000000000000000000000000000E7
:1039E00000000000000000000000000000000000D7
:1039F00000000000000000000000000000000000C7
:103A000000000000000000000000000000000000B6
:103A100000002000E83955A59ACE9ACE7ACE7ACE0B
:103A20007ACE7ACE75AD28422000000000008208D0
:103A300024198621241982080000000000002108B2
:103A40004529CB5A8D73AE73AE738E732C6B0C639A
:103A50004D6B4D6B4D6B6D732C6B484AC21800005B
:103A60000000000000000000000000000000000056
:103A70000000000000000000000000000000000046
:103A80000000000000000000000000000000000036
:103A90000000000000000000000000000000000026
:103AA0000000000000000000000000000000000016
:103AB0000000000000000000000000000000000006
:103AC00000000000000000000000000000000000F6
:103AD00000000000000000000000000000000000E6
:103AE00000000000000000000000000000000000D6
:103AF00000000000000000000000000000000000C6
:103B000000000000000000000000000000000000B5
:103B100000000000000000000000000000000000A5
:103B20000000000000000000000000000000000095
:103B30000000000000000000000000000000000085
:103B40000000000000000000000000000000000075
:103B50000000000000000000000000000000000065
:103B60000000000000000000000000000000000055
:103B70000000000000000000000000000000000045
:103B80000000000000000000000000000000000035
:103B90000000000000000000000000000000000025
:103BA0000000000000000000000000000000000015
:103BB0000000000000000000000000000000000005
:103BC00000000000000000000000000000000000F5
:103BD00000000000000000000000000000000000E5
:103BE00000000000000000000000000000000000D5
:103BF00000002000C73955A5DBDEDBDEDBDEDBDEC7
:103C0000DBDEDBD655AD083A2000000000000000E6
:103C10000000000000000000000000000000A210F2
:103C2000494A8D73AE7BAE7BAE7BAE7BAE738D733C
:103C3000EB620842E741494AE739E31820000000F7
:103C4000000041088210A210A210A210A210A2101F
:103C5000A210A210A210A210A210A210A210A210D4
:103C6000A210A210A210A210A210A210821021086D
:103C70000000000000000000000000000000200024
:103C80006210A210A210A210821061084108000068
:103C90000000000000000000000000000000000024
:103CA0000000000041088210A210A210A210821091
:103CB000610820000000000000000000000000007B
:103CC00000000000000000000000000000000000F4
:103CD000200061088210A210A210A210A210A2104F
:103CE000A210A210A21082104108000000000000E3
:103CF00000000000000000000000000000000000C4
:103D000000000000000000000000000000000000B3
:103D10000000000000000000200061088210A210D6
:103D2000A210A210A210A210A210A210A210A21003
:103D3000A210A210A21082108210821062104108FC
:103D40002000000000000000000000004108821078
:103D5000A210A210A2108210610820000000000032
:103D60000000000000000000000000000000000053
:103D700000004108A210A210A210A2108210610837
:103D80002000000000000000000000000000000013
:103D90000000000000000000000000000000000023
:103DA0000000000000000000000000000000000013
:103DB0000000000000000000000000000000000003
:103DC00000000000000000000000000000000000F3
:103DD00000000000E3183084FBDE5DEF5DEF5DEF77
:103DE0005DEFDBD6318404210000000000004108B3
:103DF000A210E318C3186108000000002000452944
:103E0000EB5AAE73AE7BAE7BAE7BAE7BAE7B0C6310
:103E1000A631410820002000200000000000000022
:103E20002000E739AF7B108C108C10841084108434
:103E300010841084108410841084108410841084E2
:103E400010841084108410841084108CAF7B294A55
:103E5000621000000000000000000000000065315A
:103E60004D6B1084108C10841084AF7BEB5A252985
:103E700041080000000000000000000000000000F9
:103E8000000020000842AF7B108C108C108CF08357
:103E90006E73294A8210000000000000000000003C
:103EA00000000000000000000000000020002421AD
:103EB000AB5AAE7BF083108410841084108410847D
:103EC00010841084108CF0832D6BA63182100000BA
:103ED00000000000000000000000000000000000E2
:103EE00000000000000000000000000000000000D2
:103EF00000002000A210A639CB5AAF7B1084108C92
:103F00001084108410841084108410841084108411
:103F100010841084108CF083F083F083CF7B4D6B82
:103F2000E841C31820000000000041080842CF8388
:103F3000108C1084108CF0838E7B6952C3180000A3
:103F40000000000000000000000000000000000071
:103F500082108A52F083108C10841084F0836E7368
:103F60000842A21000000000000000000000000055
:103F70000000000000000000000000000000000041
:103F80000000000000000000000000000000000031
:103F90000000000000000000000000000000000021
:103FA0000000000000000000000000000000000011
:103FB000000000002000C739F49CBAD63CE73CE77B
:103FC000DBDED394C739410800000000A210C639D7
:103FD0008A520B63CB5A2842042182102429695249
:103FE0006D6BAE7BAE7BAE7BAE7BAE7BAE7B0C6394
:103FF0006529000000000000000000000000000033
:10400000A218CF7BF8C539D639D639D639D639D6A4
:1040100039D639D639D639D639D639D639D639D628
:1040200039D639D639D639D639D639D6F8CDF083FE
:1040300004210000000000000000000041082C6B7B
:10404000B7BD39D639D639D639D639D6F8C5CF83A2
:104050002429000000000000000000000000000013
:104060000000C3181084F8C539D639D639D639D6E8
:1040700019CE35AD694A6110000000000000000053
:10408000000000000000000000000000C3188E7354
:10409000D7C539CE39D639D639D639D639D639D623
:1040A00039D639D639D639D618CEF4A4EC62C3182D
:1040B0000000000000000000000000000000000000
:1040C00000000000000000000000000000000000F0
:1040D000410865296E7335AD18CE39D639D639D633
:1040E00039D639D639D639D639D639D639D639D658
:1040F00039D639D639D639D639D639D639D639CE50
:1041000056B56E73242100000000E318108C18CE01
:1041100039D639D639D639D639CE96BD0C63A210E8
:10412000000000000000000000000000000000008F
:104130006529F4A439CE39D639D639D639D639CE0F
:1041400035B5CB5A821000000000000000000000CE
:10415000000000000000000000000000000000005F
:10416000000000000000000000000000000000004F
:10417000000000000000000000000000000000003F
:10418000000000000000000000000000000000002F
:104190000000000000004108A7316D6B728C728C2A
:1041A0008E6B86314108000000006110E7412C6BE6
:1041B0008D738E738E736D6BCA5A6952CB5A6D6B49
:1041C0008E73AE7BAE7BAE7BAE7BAE7B8E73CB5AFB
:1041D000242100000000000000000000000000009A
:1041E0006529D3A439D67AD67AD67AD67AD67AD62B
:1041F0005AD6F8C555B514AD14AD14AD14AD14AD03
:1042000014AD14AD14AD14AD14AD14ADD3A4CB5A8C
:10421000A21000000000000000000000C318318C54
:1042200019CE7AD67AD67AD67AD67AD65AD6B39C98
:10423000C73920000000000000000000000000005E
:104240000000653114AD39D67AD67AD67AD67AD6C8
:104250007AD618CEAF7BE318000000000000000003
:104260000000000000000000000020004529CF836E
:1042700035AD35AD35AD35AD35AD35AD55B5D8C54B
:104280005AD67AD67AD67AD65AD639D655B5EB6278
:10429000821000000000000000000000000000008C
:1042A00000000000000000000000000000002000EE
:1042B0008631F083B7C559D65AD67AD67AD67AD609
:1042C0005AD639CE76BD14A5F4A4F4A4F4A4F4A46B
:1042D00014AD96BD39D65AD67AD67AD67AD67AD64B
:1042E00059D696BD0C6382102000A63915AD59D65B
:1042F0007AD67AD67AD67AD67AD639CE108CE42087
:104300000000000000000000000000000000410864
:104310006A52D7C55AD67AD67AD67AD67AD67AD685
:1043200018CEF083C3180000000000000000000059
:10433000000000000000000000000000000000007D
:10434000000000000000000000000000000000006D
:10435000000000000000000000000000000000005D
:10436000000000000000000000000000000000004D
:10437000000000000000000000006108C318C3181E
:104380006108000000000000200045290C63AE73A6
:10439000AE7BAE7BAE7BAE7BAE738E732C638A52EC
:1043A0008A524D6BAE7BAE7BAE7B8E732C6BE73946
:1043B0008210000000000000000000000000610802
:1043C0008A52B7BD5AD67AD67AD67AD67AD67AD6DD
:1043D00018CE118CC7392529452945294529452954
:1043E0004529452945294529452945292421821062
:1043F000000000000000000000002000C73956B592
:1044000059D67AD67AD67AD67AD67AD639D6518C01
:10441000452900000000000000000000000000002E
:104420006108AA52D8C55AD67AD67AD67AD67AD61A
:104430007AD618CE6E73C318200025210842284A68
:10444000284A284A284A284AE7410421A210242160
:1044500066316529652965296529452986312D6BD0
:1044600097BD59D67AD67AD67AD67AD659D635AD78
:1044700008424108200024210842294A284A284AA3
:10448000284A284AE7410421410800000000E320AF
:10449000308CF8C55AD67AD67AD67AD67AD65AD603
:1044A000B7BDEF83E84124212421242124212421A4
:1044B0004529494AD3A439D67AD67AD67AD67AD635
:1044C0007AD639D6939C45296210EB62F8CD5AD63C
:1044D0007AD67AD67AD67AD67AD6D8C54D6BA21045
:1044E0000000000000000000000000000000C318F1
:1044F000108C39CE7AD67AD67AD67AD67AD67AD639
:10450000D7C52D6B821000000000000000000000E5
:10451000000000000000000000000000000000009B
:10452000000000000000000000000000000000008B
:10453000000000000000000000000000000000007B
:10454000000000000000000000000000000000006B
:10455000000000000000000020008210C318C318F3
:1045600082102000000000004108C7394D6BAE7B6F
:10457000AE7BAE7BAE7BAE7BAE732C6BE739C318E4
:10458000E318494A4D6BAE7BAE734D6B284AC31896
:104590002000000000000000000000000000E31800
:1045A000CF7B18CE5AD67AD67AD67AD67AD65AD63B
:1045B00096BDAB5A6108000000000000000000003A
:1045C00000000000000000000000000000000000EB
:1045D000000000000000000000008210CB5A18CE3E
:1045E0007AD67AD67AD67AD67AD67AD6F8C54D736E
:1045F000C3180000000000000000000000000000E0
:10460000E318CF7B39CE7AD67AD67AD67AD67AD6CE
:104610005AD6B7BD8A528210C3186E7335AD56B5DF
:1046200055B555B555B556B514AD2D6B04212000C3
:104630000000000000000000000000002000C7395A
:1046400035AD59D67AD67AD67AD67AD65AD6D7C54D
:104650002D6BA210C3184D6B15AD56B555B555B59C
:1046600055B556B514AD6E73242900004108294A8A
:10467000B7BD59D67AD67AD67AD67AD67AD639CE00
:10468000318C86314108000000000000000000006D
:104690000000C318F08339CE7AD67AD67AD67AD685
:1046A0007AD659D6F4A48631E420108459D67AD625
:1046B0007AD67AD67AD67AD65AD676B5294A4108A3
:1046C0000000000000000000000000002000653134
:1046D00035AD5AD67AD67AD67AD67AD67AD659D609
:1046E000F4A4E841410800000000000000000000C0
:1046F00000000000000000000000000000000000BA
:1047000000000000000000000000000000000000A9
:104710000000000000000000000000000000000099
:104720000000000000000000000000000000000089
:10473000000000000000410824210842AA52AA52A9
:10474000484A242161082008C318494A6D73AE7B8A
:10475000AE7BAE7BAE7BAE7B8E73AA52C3180000DD
:104760000000E31869526D736D73694AE318200005
:104770000000000000000000000000002000C73919
:10478000F4A459D67AD67AD67AD67AD67AD639D6C3
:10479000D3A4A639200000000000000000000000A3
:1047A0000000000000000000000000000000000009
:1047B000000000000000000000002529108C59D6E0
:1047C0007AD67AD67AD67AD67AD65AD676B5284A8C
:1047D0004108000000000000000000000000200070
:1047E000A739F4A459D67AD67AD67AD67AD67AD692
:1047F00039D6F4A486314108A631F4A459D65AD644
:104800005AD65AD65AD65AD639CE71946631000045
:104810000000000000000000000000004108694A9C
:1048200097BD5AD67AD67AD67AD67AD67AD6F8C5B7
:104830006E73C3188631F4A459D65AD65AD65AD6AE
:104840005AD65AD639D6B39CC7392000C318AF7B85
:1048500039D67AD67AD67AD67AD67AD65AD6B7C50D
:10486000AB5A8210000000000000000000000000B1
:1048700020002529939C59D67AD67AD67AD67AD62C
:104880007AD639D6B39C6531A63935AD5AD67AD6A3
:104890007AD67AD67AD67AD659D6B39C25292000EC
:1048A00000000000000000000000000061088A52C3
:1048B000F8C55AD67AD67AD67AD67AD67AD619CE94
:1048C000AF7BC318000000000000000000000000E3
:1048D00000000000000000000000000000000000D8
:1048E00000000000000000000000000000000000C8
:1048F00000000000000000000000000000000000B8
:1049000000000000000000000000000000000000A7
:104910000000000020004529EB5A6D738E738E73E2
:104920008D73EB5AC739A63169522C6B8E73AE7BEF
:10493000AE7BAE7BAE7BAE7B6D73284A6108000018
:104940000000410886312C6B2C6B65312000000083
:104950000000000000000000000000006108EB62A1
:10496000B7BD5AD67AD67AD67AD67AD67AD6F8C556
:104970008E73C3180000000000000000000000005B
:104980000000000000000000000000000000000027
:1049900000000000000000004108084235AD5AD672
:1049A0007AD67AD67AD67AD67AD639CE929C2421FD
:1049B0000000000000000000000000000000821065
:1049C000EC62B7C55AD67AD67AD67AD67AD67AD65D
:1049D000F8C5AF7BA3186108CB5AF8C55AD67AD66A
:1049E0007AD67AD67AD67AD618CEAE7BE31800007D
:1049F000000000000000000000000000C318CF7B92
:104A000039CE7AD67AD67AD67AD67AD67AD6D8C522
:104A10002D6BE318AB5AB7BD5AD67AD67AD67AD66A
:104A20007AD67AD618CEF083242120008631F4A4D9
:104A30005AD67AD67AD67AD67AD67AD659D614ADC6
:104A400066312000000000000000000000000000AF
:104A50006108494A97BD5AD67AD67AD67AD67AD696
:104A60007AD618CECF7B4529CB5AF8C55AD67AD6F6
:104A70007AD67AD67AD67AD618CE6E73821000009D
:104A8000000000000000000000000000E318F083B8
:104A900039D65AD67AD67AD67AD67AD65AD6B7BDF3
:104AA0006952410800000000000000000000000002
:104AB00000000000000000000000000000000000F6
:104AC00000000000000000000000000000000000E6
:104AD00000000000000000000000000000000000D6
:104AE00000000000000000000000000000000000C6
:104AF00000000000A21089528E73AE7BAE7BAE7BAD
:104B0000AE7B8E734C6B2C634D6B2C6B2C6B8D734F
:104B1000AE7BAE7BAE7B8E73CB5A45292000000066
:104B20000000200085312C630C6344292000000024
:104B3000000000000000000000000000E3181084E6
:104B400019CE7AD67AD67AD67AD67AD65AD696BD6B
:104B50000C630421C318C318C318C318C318C3189F
:104B6000C318C318C318A318821020000000000047
:104B70000000000000000000A2100C63D7C55AD648
:104B80007AD67AD67AD67AD67AD6F8C58E73821045
:104B900000000000000000000000000000000421F0
:104BA000108419CE7AD67AD67AD67AD67AD65AD6CA
:104BB00096BDAB5A61080421F08359D67AD67AD6CD
:104BC0007AD67AD67AD65AD696BD6A52610800004D
:104BD0000000000000000000000020006529D4A4AF
:104BE00059D67AD67AD67AD67AD67AD65AD696BD83
:104BF0008A522421CF7B39CE7AD67AD67AD67AD603
:104C00007AD65AD6B7BDCB62821062108A52B7BD2F
:104C10005AD67AD67AD67AD67AD67AD619CE108459
:104C2000C3180000000000000000000000000000A9
:104C3000C3188E7B18CE7AD67AD67AD67AD67AD61A
:104C40005AD6B7BDCB5A4529CF8339CE7AD67AD634
:104C50007AD67AD67AD65AD697BD294A200000004D
:104C6000000000000000000000002000C73914A56B
:104C70005AD67AD67AD67AD67AD67AD659D6D4A4CD
:104C8000663100000000000000000000000000008D
:104C90000000000000000000000000000000000014
:104CA0000000000000000000000000000000000004
:104CB00000000000000000000000000000000000F4
:104CC00000000000000000000000000000000000E4
:104CD0000000200024210B63AE7BAE7BAE7BAE7B5D
:104CE000AE7BAE7B8E730C63284A652945298A52B8
:104CF0006D73AE7B8E73EB5A4529410800000000AE
:104D00000000A21028426D6B4D6BC739610800008E
:104D1000000000000000000000002008C73935AD89
:104D20005AD67AD67AD67AD67AD67AD67AD6F8CDAE
:104D300014AD7294519472947294729472947294A9
:104D400072945194518C518CEF83CB5A4529200099
:104D500000000000000000004529518C39CE7AD6B1
:104D60007AD67AD67AD67AD65AD655B5494A20080E
:104D70000000000000000000000000002000E841EA
:104D800014AD59D67AD67AD67AD67AD67AD639D694
:104D9000B39CA7394108E73914AD5AD67AD67AD6EA
:104DA0007AD67AD67AD659D6B39C45292000000007
:104DB000000000000000000000008210AB5AD7C5C0
:104DC0005AD67AD67AD67AD67AD67AD639D6B39CC5
:104DD0008631A739F4A45AD67AD67AD67AD67AD634
:104DE0007AD659D6D3A486312000E318AF7B18CEEB
:104DF0005AD67AD67AD67AD67AD65AD697BDAB5ABA
:104E00004108000000000000000000000000200039
:104E1000A639D3A459D67AD67AD67AD67AD67AD67D
:104E200039D6F4A4C7394529729459D67AD67AD698
:104E30007AD67AD67AD639D6D3A44529000000008E
:104E4000000000000000000000006108EC62B7C52F
:104E50005AD67AD67AD67AD67AD67AD618CEAF7B82
:104E6000A218000000000000000000000000000088
:104E70000000000000000000000000000000000032
:104E80000000000000000000000000000000000022
:104E90000000000000000000000000000000000012
:104EA0000000000000000000000000000000000002
:104EB0000000200045290C63AE7BAE7BAE7BAE7B51
:104EC000AE7BAE7B4D6BE739A2102000410845292F
:104ED000CB5A8E732C63A6314108000000000000FD
:104EE0006108C6390C638E738E73CB5A452941080D
:104EF000000000000000000000008210EB62D7C537
:104F00005AD67AD67AD67AD67AD67AD67AD65AD661
:104F100039CEF8CD18CE18CE18CE18CE18CE19CE60
:104F200039CE19CE19CE19CE18CE96BD318CC739CF
:104F30004108000000004108284A35AD59D67AD60C
:104F40007AD67AD67AD67AD639D65194652900009F
:104F500000000000000000000000000061080C6379
:104F6000B7C55AD67AD67AD67AD67AD67AD6F8CD40
:104F7000AE7BE318A210EC62D7C55AD67AD67AD6A1
:104F80007AD67AD67AD659D6F4A4294A452945291B
:104F9000452945294529452965318A52B39C39D689
:104FA0005AD67AD67AD67AD67AD65AD6B7BD0C637E
:104FB0000421AA5AD7C55AD67AD67AD67AD67AD6BC
:104FC0007AD639CE7294C73945296A52F4A459D693
:104FD0007AD67AD67AD67AD67AD659D6D3A4A639BC
:104FE0000000000000000000000000000000410878
:104FF000CB5A97BD5AD67AD67AD67AD67AD67AD678
:1050000018CEF08304212421318C39D67AD67AD671
:105010007AD67AD67AD659D655B58A5245292421D8
:1050200024292429242924212421C739729439CE02
:105030007AD67AD67AD67AD67AD65AD696BD6A52A1
:105040004108000000000000000000000000000017
:105050000000000000000000000000000000000050
:105060000000000000000000000000000000000040
:105070000000000000000000000000000000000030
:10508000000000000000000000002000A210E31853
:10509000C318E32008424D6BAE7BAE7BAE7BAE7B8C
:1050A000AE7BAE73EB5A042120000000000082109A
:1050B000494A6D738A52E31800000000000041085D
:1050C0006529EB5A8E73AE7BAE7B6D738A520421D9
:1050D000200000000000000000000421F08339CE11
:1050E0007AD67AD67AD67AD67AD67AD639D696BD7E
:1050F000F4A4B39CB39CD39CD39CB39CD3A455B5CC
:1051000018CE5AD67AD67AD65AD65AD6F8CD318C07
:1051100066312000000082104D6BD7C57AD67AD652
:105120007AD67AD67AD65AD6F8CD4D73C3180000FF
:10513000000000000000000000000000E318108CD8
:1051400039CE7AD67AD67AD67AD67AD67AD696BD25
:105150008A5261082529F08319CE7AD67AD67AD672
:105160007AD67AD67AD65AD6F8C5D3A472947294DF
:105170007294729472945294729435ADF8CD5AD65A
:105180007AD67AD67AD67AD65AD6F8C5318C66319E
:105190002421AF7B19CE5AD67AD67AD67AD67AD649
:1051A0007AD659D676BD72945194F4A4F8C57AD6BD
:1051B0007AD67AD67AD67AD65AD618CECF83E3184C
:1051C0000000000000000000000000000000A2102D
:1051D000CF7B18CE7AD67AD67AD67AD67AD67AD6BF
:1051E000B7BDEB626210A210EC62B7BD5AD67AD698
:1051F0007AD67AD67AD65AD639CE14AD5194518C05
:105200005194519451945194518C929CB7C55AD653
:105210007AD67AD67AD67AD67AD659D6B39C8631C9
:10522000200000000000000000000000000000005E
:10523000000000000000000000000000000000006E
:10524000000000000000000000000000000000005E
:10525000000000000000000000000000000000004E
:105260000000000000000000410845296952CB5AA7
:10527000CB5AEB622C6B6D6B8E73AE7BAE7BAE7BD1
:105280008E732C6BE739610800000000000082106B
:1052900028426D738952C3180000000000000421E9
:1052A000AA528D73AE7BAE7BAE7BAE736D73494AF3
:1052B000A2100000000000004108E741F4A45AD603
:1052C0007AD67AD67AD67AD67AD65AD635AD8A5260
:1052D0006529242124212421242124212421494A0F
:1052E000929C39CE5AD67AD67AD67AD67AD6D7C57D
:1052F0006E73A21020002529729439CE7AD67AD600
:105300007AD67AD67AD65AD655B5084241080000E0
:10531000000000000000000000004108C73935AD62
:105320005AD67AD67AD67AD67AD67AD65AD6929C5F
:1053300065294108284A15AD59D67AD67AD67AD643
:105340007AD67AD65AD659D639D619CE19CE19CE9A
:1053500019CE19CE19CE19CE19CE19CE39CE39CED5
:1053600039CE39CE39CE19CEB7BDCF83863161085B
:10537000E841D4A459D67AD67AD67AD67AD67AD6CD
:105380005AD659D619CE19CE39CE59D65AD67AD63A
:105390007AD67AD67AD67AD65AD676BD8A52410845
:1053A0000000000000000000000000002000863126
:1053B000F4A459D67AD67AD67AD67AD67AD65AD666
:1053C000F4A4A63120002000E3182C6B15ADD8C53D
:1053D00039CE39CE39CE39CE39CE19CE18CE18CEF7
:1053E00018CE18CE18CE18CE19CE39D65AD67AD6AF
:1053F0007AD67AD67AD67AD65AD618CE6E738210E4
:10540000000000000000000000000000000000009C
:10541000000000000000000000000000000000008C
:10542000000000000000000000000000000000007C
:10543000000000000000000000000000000000006C
:105440000000000000000000C31869526D738E73E5
:105450008E736D73EB62494A69524C6BAE73AE73D7
:105460004D6B0842A218000000000000200004213B
:10547000CB5A8E73EB624529200000002000853155
:105480000C63AE7BAE7BAE7BAE7BAE7BAE73CB5A9A
:1054900024210000000000008210EC62B7BD7AD623
:1054A0007AD67AD67AD67AD65AD618CECF7BA210AA
:1054B00000000000000000000000000000002421A7
:1054C000CF8319CE5AD67AD67AD67AD67AD639CE2C
:1054D000929404214108084235AD5AD67AD67AD63C
:1054E0007AD67AD67AD639D651942529200000006A
:1054F000000000000000000000008210CB5AD7C559
:105500005AD67AD67AD67AD67AD65AD619CE8E7313
:10551000A21082102D6BB7BD5AD67AD67AD67AD61B
:105520007AD65AD639CE55B57294519472947294F3
:10553000729472947294729472947294729472943B
:10554000729471945194F0830C6325294108621080
:10555000EB6296BD5AD67AD67AD67AD67AD67AD6EB
:1055600039CE55B55194318CF4A418CE7AD67AD66A
:105570007AD67AD67AD67AD659D6B39C8631200096
:1055800000000000000000000000000061086A52F6
:10559000B7C57AD67AD67AD67AD67AD67AD639CEA8
:1055A000F083C318000000000000C31808424D6BD0
:1055B0001084518C518C518C518C518C518C518C4C
:1055C000518C518C518C318CB39CD7C55AD67AD61C
:1055D0007AD67AD67AD67AD65AD696BD294A200075
:1055E00000000000000000000000000000000000BB
:1055F00000000000000000000000000000000000AB
:10560000000000000000000000000000000000009A
:10561000000000000000000000000000000000008A
:1056200000000000000000000421EB62AE73AE7BBE
:10563000AE7B0C6386318210C318494A6D736D735B
:105640006952A2100000000000002000E318494A3F
:105650006D73AE736D738952E3182000200086319C
:105660002C63AE7BAE7BAE7BAE7BAE7BAE73EB5A78
:1056700024290000000000004529108C19CE7AD69C
:105680007AD67AD67AD67AD65AD676B58A52200083
:105690000000000000000000000000000000A7392A
:1056A000929C39D67AD67AD67AD67AD67AD659D6FE
:1056B000D39C4529A3182C6BD7C55AD67AD67AD64F
:1056C0007AD67AD65AD6F8C52D6B6108000000004C
:1056D000000000000000000000002421F08339D603
:1056E0005AD67AD67AD67AD67AD65AD696BD69520C
:1056F0004108E320519419CE7AD67AD67AD67AD652
:105700007AD65AD696BDCB5A0421E318E320E3207B
:10571000E320E320E320E320E320E320E320E32071
:10572000E320E318E318A210610800000000E3186A
:10573000F08318CE7AD67AD67AD67AD67AD65AD650
:1057400096BDEC62E4200421CB62B7BD7AD67AD64E
:105750007AD67AD67AD65AD618CE8E7BA210000088
:10576000000000000000000000000000E3188E733D
:1057700039D67AD67AD67AD67AD67AD65AD6F8C59D
:10578000AB5A410800000000000000002000610842
:10579000A210C318C318C318C318C318C318C3185A
:1057A000C318C318C318E318694A35AD5AD67AD658
:1057B0007AD67AD67AD67AD639D6B39C0421000026
:1057C00000000000000000000000000000000000D9
:1057D00000000000000000000000000000000000C9
:1057E00000000000000000000000000000000000B9
:1057F00000000000000000000000000000000000A9
:105800000000000000000000A21028424D6B8E73C3
:105810004D6B284AA2100000200086312C6B0C63CF
:1058200086310000000000000000A210694A6D737C
:10583000AE7BAE7BAE736D73494AC3182000242142
:10584000CB5AAE73AE7BAE7BAE7BAE7B8D73895293
:10585000E3180000000000000842F4A439D65AD62C
:105860005AD65AD65AD65AD619CE5194242900005F
:105870000000000000000000000000004108CB5ABA
:1058800076BD5AD67AD67AD67AD67AD67AD619CE3E
:10589000318CE4206631518C39D65AD67AD67AD6F4
:1058A0007AD67AD659D635ADE7410000000000001F
:1058B000000000000000000020002842F4A45AD696
:1058C0007AD67AD67AD67AD67AD639CEB39C2421AD
:1058D0004108E84155B55AD67AD67AD67AD67AD6DC
:1058E0007AD639D6729445290000000000000000E5
:1058F00000000000000000000000000000000000A8
:105900000000000000000000000000002000C73977
:1059100035AD59D67AD67AD67AD67AD67AD639D6D7
:10592000B39C65290000A3184D7318CE7AD67AD699
:105930007AD67AD67AD659D676B5294A200000008A
:10594000000000000000000000002000C739D3A4C0
:105950005AD67AD67AD67AD67AD67AD659D635AD76
:1059600045292000000000000000000000000000A9
:105970000000000000000000000000000000000027
:105980000000000000008210EB62B7BD5AD67AD644
:105990007AD67AD67AD65AD6F8C58E7B41080000D8
:1059A00000000000000000000000000000000000F7
:1059B00000000000000000000000000000000000E7
:1059C00000000000000000000000000000000000D7
:1059D00000000000000000000000000000000000C7
:1059E00000000000000000002000C318E7396952E1
:1059F0000842E31820000000200065312C630C638E
:105A00006529000000000000410886312C63AE7358
:105A1000AE7BAE7BAE7BAE732C6BA63120008210CA
:105A200008424D6B8E73AE7BAE7B8E732C63A631BA
:105A300061080000000000008631F08355B596BD76
:105A400096BD96BD96BD76B55194294A4108000091
:105A50000000000000000000000000002421108C65
:105A6000F8CD7AD67AD67AD67AD67AD65AD697BD5D
:105A7000EC62A210494A35AD5AD67AD67AD67AD691
:105A80007AD67AD639D6D3A4863100000000000039
:105A900000000000000020002421AF7BD7C57AD68B
:105AA0007AD67AD65AD639D6F8C514ADEC626108E2
:105AB00082100C63D8C57AD67AD67AD67AD67AD6B8
:105AC0005AD618CE4D73A21000000000000000004E
:105AD00000000000000000000000000000000000C6
:105AE0000000000000000000000000006108EC62FF
:105AF000B7C55AD67AD67AD67AD67AD65AD6F8CDC5
:105B00008E7BA3180000E318CF7B39D67AD67AD6DD
:105B10007AD67AD67AD659D635ADA63100000000AD
:105B200000000000000000000000E4206E73B7BD1C
:105B30007AD67AD67AD67AD67AD65AD6F8C5CF7B9E
:105B400061080000000000000000000000000000EC
:105B50000000000000000000000000000000000045
:105B60000000000000000421108419CE7AD67AD6F5
:105B70007AD67AD67AD659D676B569520000000020
:105B80000000000000000000000000000000000015
:105B90000000000000000000000000000000000005
:105BA00000000000000000000000000000000000F5
:105BB00000000000000000000000000000000000E5
:105BC00000000000000000000000000061088210DA
:105BD0006108000000000000821008426D6B4D6BF0
:105BE000E741410800000000821008426D73AE7B5F
:105BF000AE7BAE7BAE7BAE7B6D73494A6108200005
:105C0000C3180842EB624D6B4C6BCB5AC6398210FD
:105C1000000000000000000061084529284A6A527F
:105C2000695269526952294AA631C739294A294A13
:105C3000294A294A294A294A294A6A52AF7BB7BDCB
:105C400059D67AD67AD67AD67AD65AD619CE318C11
:105C5000652982100C63B7BD5AD67AD67AD67AD621
:105C60007AD67AD65AD697BDAF7B8A526A526A5292
:105C70006A526A526A52AB5A108496BD59D67AD685
:105C80007AD65AD676B510840C630842C318000041
:105C90000421F08339CE7AD67AD67AD67AD67AD6D5
:105CA00059D676B508422000000000000000000030
:105CB00000000000000000000000000000000000E4
:105CC000000000000000000000000000A318CF7BCF
:105CD00018CE7AD67AD67AD67AD67AD65AD676BDEB
:105CE000695241080000A2100C63F8C55AD67AD652
:105CF0007AD67AD67AD65AD6D7C5AF7B494A0842E1
:105D0000084208420842E841494ACF7B76B559D655
:105D10007AD67AD67AD67AD65AD6F8C551948631BA
:105D20000000000000000000000000000000000073
:105D30000000000000000000000000000000000063
:105D40000000000000008631D39C59D67AD67AD65E
:105D50007AD67AD67AD619CE9294242900000000F9
:105D60000000000000000000000000000000000033
:105D70000000000000000000000000000000000023
:105D80000000000000000000000000000000000013
:105D90000000000000000000000000000000000003
:105DA00000000000000000000000000000000000F3
:105DB0000000000000006108C6390C638E738E730A
:105DC0000B63652941080000821028426D73AE7B89
:105DD000AE7BAE7BAE7BAE7B6D73494A6108000043
:105DE000000082104429A631863104216108000098
:105DF0000000000000000000000000004108410811
:105E000041084108410841086529108455B576B517
:105E100076B576B576B576B556B596BDF8C559D68C
:105E20007AD67AD67AD67AD659D6F8C5B39C0842AD
:105E300061086108EB6276B55AD67AD67AD67AD6F8
:105E40007AD67AD67AD659D6F8C596BD96BD96BD7D
:105E500096BD96BD96BD97BDF8CD59D67AD67AD661
:105E60005AD6B7C52D6B45298210410800000000A5
:105E7000E420CF8319CE5AD67AD67AD67AD67AD675
:105E800039CE929C24210000000000000000000098
:105E90000000000000000000000000000000000002
:105EA000000000000000000000000000A2108E7B37
:105EB000F8C55AD67AD67AD67AD67AD639CEB39C5F
:105EC000652900000000200086317294F8CD5AD672
:105ED0007AD67AD67AD67AD659D6D8C576B555B581
:105EE00055B555B555B535AD76B5F8C559D67AD64B
:105EF0007AD67AD67AD639D6B7C5318CC739410821
:105F00000000000000000000000000000000000091
:105F10000000000000000000000000000000000081
:105F20000000000000006631929C39CE5AD67AD625
:105F30007AD67AD65AD6D7C54D73821000000000A3
:105F40000000000000000000000000000000000051
:105F50000000000000000000000000000000000041
:105F60000000000000000000000000000000000031
:105F70000000000000000000000000000000000021
:105F80000000000000000000000000000000000011
:105F900000000000410886310B638E73AE7BAE7B40
:105FA0008D73AA5A242920004108C6394D6BAE735F
:105FB000AE7BAE7BAE7BAE734D6BE7394108000024
:105FC00000000000200041084108200000000000FF
:105FD00000000000000000000000000000000000C1
:105FE0000000000000000000A631929CB7C5D8C593
:105FF000D8C5D8C5D8C5D8C5D8C5D8C5F8C5F8C579
:10600000F8C5F8C5F8C5D7C535ADF08308426108B5
:1060100000002000A631108497BDF8C5F8C5F8C56A
:10602000F8C5F8C5F8C5F8C5F8C5D8C5D8C5D8C5E8
:10603000D8C5D8C5D8C5D8C5F8C5F8C5F8C5F8C5F8
:1060400097BD318C252920000000000000000000D1
:106050006108494AF4A4D7C5F8C5F8C5F8C5F8C51C
:1060600076B58E736108000000000000000000009B
:106070000000000000000000000000000000000020
:106080000000000000000000000000004108284A55
:10609000B39CB7C5F8C5F8C5F8C5F8C597BD8E7BE4
:1060A000A21000000000000061082842318C76B583
:1060B000D7C5F8C5F8C5F8C5F8C5F8C5D8C5D7C55A
:1060C000D8C5D8C5D8C5D7C5D8C5F8C5F8C5F8C589
:1060D000F8C5D8C5B7BDF4A46E7386314108000079
:1060E00000000000000000000000000000000000B0
:1060F00000000000000000000000000000000000A0
:10610000000000000000C3180C6B35B5D8C5F8C5F9
:10611000F8C5F8C5D8C514AD494A200000000000F4
:10612000000000000000000000000000000000006F
:10613000000000000000000000000000000000005F
:10614000000000000000000000000000000000004F
:10615000000000000000000000000000000000003F
:10616000000000000000000000000000000000002F
:1061700000000000E318CB5A8E73AE7BAE7BAE7B83
:10618000AE7B6D736952A2102000E3188A526D73C2
:10619000AE73AE738E736D738A52E3180000000005
:1061A00000000000000000000000000000000000EF
:1061B00000000000000000000000000000000000DF
:1061C00000000000000000008210A7398A5AEB622C
:1061D000EB62EB62EB62EB62EB62EB62EB62EB6257
:1061E000EB62EB62CB628A52A639A3182000000052
:1061F0000000000020000421494ACB5AEB62EB6208
:10620000EB62EB62EB62EB62EB62EB62EB62EB6226
:10621000EB62EB62EB62EB62EB62EB62EB62CB5A3E
:10622000494A042120000000000000000000000096
:106230000000610886318A52CB5AEB62EB62EB6256
:106240006A52452900000000000000000000000024
:10625000000000000000000000000000000000003E
:1062600000000000000000000000000000004108E5
:1062700065296952CB5AEB62EB62EB628A5245297F
:10628000000000000000000000002000E318C739F3
:106290006A52AB5ACB62EB62EB62EB62EB62EB628F
:1062A000EB62EB62EB62EB62EB62EB62EB62EB6286
:1062B000EB62AB5A494A45298210000000000000F9
:1062C00000000000000000000000000000000000CE
:1062D00000000000000000000000000000000000BE
:1062E0000000000000000000A210C739AB5ACB62CA
:1062F000EB62EB62EB62284AA2180000000000008B
:10630000000000000000000000000000000000008D
:10631000000000000000000000000000000000007D
:10632000000000000000000000000000000000006D
:10633000000000000000000000000000000000005D
:10634000000000000000000000000000000000004D
:106350000000200065292C6BAE7BAE7BAE7BAE7B54
:10636000AE7BAE73EB620421200020002421694A39
:106370000C634D6B0C63694A242121080000000066
:10638000000000000000000000000000000000000D
:1063900000000000000000000000000000000000FD
:1063A000000000000000000000002000410861081B
:1063B0006108610861086108610861086108610895
:1063C0006108610861084108000000000000000049
:1063D0000000000000000000200041086108610882
:1063E0006108610861086108610861086108610865
:1063F0006108610861086108610861086108410875
:10640000200000000000000000000000000000006C
:1064100000000000000041084108610861086108AF
:106420004108200000000000000000000000000003
:10643000000000000000000000000000000000005C
:10644000000000000000000000000000000000004C
:106450000000210841086108610861084108200026
:10646000000000000000000000000000000000002C
:10647000200041084108610861086108610861085D
:1064800061086108610861086108610861086108C4
:10649000610841082000000000000000000000002A
:1064A00000000000000000000000000000000000EC
:1064B00000000000000000000000000000000000DC
:1064C000000000000000000000002000410841081A
:1064D0006108610861082000000000000000000061
:1064E00000000000000000000000000000000000AC
:1064F000000000000000000000000000000000009C
:10650000000000000000000000000000000000008B
:10651000000000000000000000000000000000007B
:10652000000000000000000000000000000000006B
:106530000000200065312C6BAE7BAE7BAE7BAE7B6A
:10654000AE7BAE730B632421000000002000A2107C
:10655000242165312429A210200000000000000041
:10656000000000000000000000000000000000002B
:10657000000000000000000000000000000000001B
:10658000000000000000000000000000000000000B
:1065900000000000000000000000000000000000FB
:1065A00000000000000000000000000000000000EB
:1065B00000000000000000000000000000000000DB
:1065C00000000000000000000000000000000000CB
:1065D00000000000000000000000000000000000BB
:1065E00000000000000000000000000000000000AB
:1065F000000000000000000000000000000000009B
:10660000000000000000000000000000000000008A
:10661000000000000000000000000000000000007A
:10662000000000000000000000000000000000006A
:10663000000000000000000000000000000000005A
:10664000000000000000000000000000000000004A
:10665000000000000000000000000000000000003A
:10666000000000000000000000000000000000002A
:10667000000000000000000000000000000000001A
:10668000000000000000000000000000000000000A
:1066900000000000000000000000000000000000FA
:1066A00000000000000000000000000000000000EA
:1066B00000000000000000000000000000000000DA
:1066C00000000000000000000000000000000000CA
:1066D00000000000000000000000000000000000BA
:1066E00000000000000000000000000000000000AA
:1066F000000000000000000000000000000000009A
:106700000000000000000000000000000000000089
:10671000000020000421EB5A8E73AE7BAE7BAE7B73
:10672000AE7B8E73AA52C318000000000000000068
:106730000000200000000000000000000000000039
:106740000000000000000000000000000000000049
:106750000000000000000000000000000000000039
:106760000000000000000000000000000000000029
:106770000000000000000000000000000000000019
:106780000000000000000000000000000000000009
:1067900000000000000000000000000000000000F9
:1067A00000000000000000000000200020000000A9
:1067B0000000000020002000000000000000000099
:1067C00000000000000000000000000000000000C9
:1067D00000000000000000000000000000000000B9
:1067E00000000000000000000000000000000000A9
:1067F0000000000000000000000000000000000099
:106800000000000000000000000000000000000088
:106810000000000000000000000000000000000078
:106820000000000000000000000000000000000068
:106830000000000000000000000000000000000058
:10684000000000000000000000004100A20841001C
:1068500061088208200000000000000020004100C4
:1068600000000000000020002000000000000000E8
:106870000000000000000000000000000000000018
:106880000000000000000000000000000000000008
:1068900000000000000000000000000000000000F8
:1068A00000000000000000000000000000000000E8
:1068B00000000000000000000000000000000000D8
:1068C00000000000000000000000000000000000C8
:1068D00000000000000000000000000000000000B8
:1068E00000000000000000000000000000000000A8
:1068F00000000000611008424D6B8E73AE7BAE7BD2
:106900008E732C63A63961080000000000000000AF
:106910000000000000000000000000000000000077
:106920000000000000000000000000000000000067
:106930000000000000000000000000000000000057
:106940000000000000000000000000000000000047
:106950000000000000000000000000000000000037
:106960000000000000000000000000000000000027
:106970000000000000000000000000000000000017
:1069800000000000000000002000241165194100F3
:1069900000004100651944114000000000000000A3
:1069A00000000000000000000000000000000000E7
:1069B00000000000000000000000000000000000D7
:1069C00000000000000000000000000000000000C7
:1069D00000000000000000000000000000000000B7
:1069E00000000000000000000000000000000000A7
:1069F0000000000000000000000000000000000097
:106A00000000000000000000000000000000000086
:106A10000000000000000000000000000000000076
:106A200000000000000000000000E3104822C6192A
:106A30000722C6194100000000000000A208A619A4
:106A400082080000200045116519200000000000A8
:106A50000000000000000000000000000000000036
:106A60000000000000000000000000000000000026
:106A70000000000000000000000000000000000016
:106A80000000000000000000000000000000000006
:106A900000000000000000000000000000000000F6
:106AA00000000000000000000000000000000000E6
:106AB00000000000000000000000000000000000D6
:106AC00000000000000000000000000000000000C6
:106AD000000000000000C3180842CB5A2C6B2C6346
:106AE000CB5AA63982100000000000000000000010
:106AF0000000000000000000000000000000000096
:106B00000000000000000000000000000000000085
:106B10000000000000000000000000000000000075
:106B20000000000000000000000000000000000065
:106B30000000000000000000000000000000000055
:106B40000000000000000000000000000000000045
:106B50000000000000000000000000000000000035
:106B6000000000000000000020000722692A8208BF
:106B7000400065190B33282261000000000000006E
:106B80000000000000000000000000000000000005
:106B90000000000000002000410041000000000053
:106BA0000000200041004100200000000000200003
:106BB0004100410000000000000000000000000053
:106BC00000000000000000000000000000002000A5
:106BD0000000000000002000410020000000000034
:106BE0000000000000000000000000000000200085
:106BF0000000000000000000000000000000000095
:106C0000000000000000000000008208E721692A5F
:106C10004822441120000000000020004411CA3224
:106C2000031100006100692A892A41000000200048
:106C300041004100000000000000000000000000D2
:106C400000000000200020002000200020000000A4
:106C500000002000410020000000000000000000B3
:106C60000000000000000000000000000000000024
:106C70000000000000000000000000000000000014
:106C80000000000000000000000000000000000004
:106C900000000000000000000000000000000000F4
:106CA00000000000000000000000000000000000E4
:106CB00000000000000000006108042186316531F9
:106CC000E320410800000000000000000000000078
:106CD00000000000000000000000000000000000B4
:106CE00000000000000000000000000000000000A4
:106CF0000000000000000000000000000000000094
:106D00000000000000000000000000000000000083
:106D10000000000000000000000000000000000073
:106D20000000000000000000000000000000000063
:106D30000000000000000000000000000000000053
:106D4000000000000000000020000822892AA2089C
:106D5000E310AA2AAD3B2822A20803110311200048
:106D600041002411E308A208241161080000C308AF
:106D700024116100820865190722E721441161008E
:106D800082088519E721E72165196108A20886199B
:106D9000E721E72104114100C3082411410041000B
:106DA0002411E31081082411E30800008208441133
:106DB000A20841000411E72107228519A2086100F9
:106DC0002411E308200082082411A208A2086511FA
:106DD00041002000E3082411610004110411200087
:106DE00000002000C3082411810824112411E308A5
:106DF00004116519A2080000000020004411EB32C4
:106E0000041100006100892A892A4100610865197E
:106E1000E721C72104112000E308241140002000CD
:106E2000031145114511A619C619A6196511E308E4
:106E30008519A619E721A619A20800000000000084
:106E40000000000000000000000000000000000042
:106E50000000000000000000000000000000000032
:106E60000000000000000000000000000000000022
:106E70000000000000000000000000000000000012
:106E80000000000000000000000000000000000002
:106E90000000000000000000000020002000200092
:106EA00000000000000000000000000000000000E2
:106EB00000000000000000000000000000000000D2
:106EC00000000000000000000000000000000000C2
:106ED00000000000000000000000000000000000B2
:106EE00000000000000000000000000000000000A2
:106EF0000000000000000000000000000000000092
:106F00000000000000000000000000000000000081
:106F10000000000000000000000000000000000071
:106F2000000000000000000020000722892A031151
:106F3000E721CA320B332822E30807220722610027
:106F4000A208892AE7218519692AE3100000A619F9
:106F5000692A0411E721CA2AE7212822AA2A6511F1
:106F60004511CA320722A619AA2A86192411072216
:106F7000A6192822892A2411C619892AA20882085A
:106F80004822E7210311482AE7216100E721EB327B
:106F900044112411AA2A482AE721CA2A07220411E7
:106FA000692AE72141002411892A65112411AA2A9E
:106FB000A2084100C6194822E308282228226108B5
:106FC00000004000A619892A0411892AE721A20895
:106FD00007222B3365192000000020004411EB32FA
:106FE000041100006100892A892A6108A619CA2AA9
:106FF000E7212822A92A0311C619892A82084100FB
:107000000722692A651907220B33682A4511651979
:107010004C3BAA2AE721AA2A48226100000000006E
:107020000000000000000000000000000000000060
:107030000000000000000000000000000000000050
:107040000000000000000000000000000000000040
:107050000000000000000000000000000000000030
:107060000000000000000000000000000000000020
:107070000000000000000000000000000000000010
:107080000000000000000000000000000000000000
:1070900000000000000000000000000000000000F0
:1070A00000000000000000000000000000000000E0
:1070B00000000000000000000000000000000000D0
:1070C00000000000000000000000000000000000C0
:1070D00000000000000000000000000000000000B0
:1070E00000000000000000000000000000000000A0
:1070F0000000000000000000000000000000000090
:10710000000000000000000020000722892A07225A
:10711000892A8519692A4822E3104822892A0311FD
:107120004411EB32E721A619AA2A8519C2082822A0
:10713000892A8519AA2A072241008208892A692AF0
:10714000A619CA32E7218519CA3286196108820850
:10715000E308C619EB328519E721AA2AC20882087A
:10716000692A07220411682A072286192C334C3B0E
:107170006519C721892AC2082000A619AA2AA619BA
:10718000892A692AE310A619EA3265194411EB32FB
:107190004411E3102822692AE308482AEB32A61991
:1071A00003118208C619AA2A0411892A2822A619BD
:1071B0006C3B8D3B85192000000020004411EB3210
:1071C000041100006100692A892AE310AA2A892A89
:1071D0002411A6190B33E721C619EA322411031131
:1071E000892A682A61080311AA2A861940002411F5
:1071F0002C3344114100C619CA2AE31000000000D4
:10720000000000000000000000000000000000007E
:10721000000000000000000000000000000000006E
:10722000000000000000000000000000000000005E
:10723000000000000000000000000000000000004E
:10724000000000000000000000000000000000003E
:10725000000000000000000000000000000000002E
:10726000000000000000000000000000000000001E
:10727000000000000000000000000000000000000E
:1072800000000000000000000000000000000000FE
:1072900000000000000000000000000000000000EE
:1072A00000000000000000000000000000000000DE
:1072B00000000000000000000000000000000000CE
:1072C00000000000000000000000000000000000BE
:1072D00000000000000000000000000000000000AE
:1072E0000000000000000000200007220B33EB32FA
:1072F000E721A208692A4822E31048220B332822FA
:10730000692A4C3BE7218519EB32892A0722EA32A8
:10731000892A8619AA2A8619200061004822892A0A
:10732000C619EB32A92A892A0B33A619241128225F
:10733000692A892AEB326519E721AA2AC20882083C
:10734000692A07220311692ACA2A892A892ACA2A8C
:10735000861907224822410000004511CA2AC71990
:10736000892A0B332822A92A2B33651144114C3367
:10737000692A2822EB32892AE308692A0B3348223A
:10738000892A07220722892A0411892AEB32AA2A8C
:10739000AA2A0B3385192000000020004411EB328B
:1073A000031100006100692A892A24110B33CA2ABB
:1073B000E721E72107222411C6192C33482228226D
:1073C0000B3348226100E310AA2A851920002411FA
:1073D0000B33E31020006519CA2A241100000000B5
:1073E000000000000000000000000000000000009D
:1073F000000000000000000000000000000000008D
:10740000000000000000000000000000000000007C
:10741000000000000000000000000000000000006C
:10742000000000000000000000000000000000005C
:10743000000000000000000000000000000000004C
:10744000000000000000000000000000000000003C
:10745000000000000000000000000000000000002C
:10746000000000000000000000000000000000001C
:10747000000000000000000000000000000000000C
:1074800000000000000000000000000000000000FC
:1074900000000000000000000000000000000000EC
:1074A00000000000000000000000000000000000DC
:1074B00000000000000000000000000000000000CC
:1074C0000000000000000000200007226D3B892A18
:1074D000E3108208892A482203114822692A0311ED
:1074E0004411EB32E721A619AA2A8519C3082822DC
:1074F000892A8519AA2AE7214100A208892A482A4F
:10750000A619CA32A6190411AA2A892A692ACA2ADE
:1075100065198619EA328519E721A92AC208820865
:10752000692A07220311892A8D3B28224411692ADE
:107530008519E721A92AA2082000C619892A8519D8
:10754000892A682AE310A619EB3265194411EB3237
:107550004511E3102822692AE310482A692AE3101A
:107560002822AA2A4822892A0411AA2A6D3B692ABC
:107570006519CA2A85192000000020004411EB3249
:10758000041120008108892A892AE310AA2A482A9E
:10759000A208810861006100E721EB322411031188
:1075A000892A682A6100E310AA2A8519200024117B
:1075B0004C3B45114100C721CA2AE30800000000E6
:1075C00000000000000000000000000000000000BB
:1075D00000000000000000000000000000000000AB
:1075E000000000000000000000000000000000009B
:1075F000000000000000000000000000000000008B
:10760000000000000000000000000000000000007A
:10761000000000000000000000000000000000006A
:10762000000000000000000000000000000000005A
:10763000000000000000000000000000000000004A
:10764000000000000000000000000000000000003A
:10765000000000000000000000000000000000002A
:10766000000000000000000000000000000000001A
:10767000000000000000000000000000000000000A
:1076800000000000000000000000000000000000FA
:1076900000000000000000000000000000000000EA
:1076A00000000000000000002000E721EA32241161
:1076B00020006100482A2822E3080722072241000F
:1076C000A208892AC6198519692A03112000A6195A
:1076D000692A0411C719AA2A07224822892A2411D3
:1076E0004411AA2A482AE721AA2AE721E719CA2A27
:1076F0004822892ACA324511C619EA320722E721EF
:10770000EA32AA2AA619692AAA2AC308E308482A3B
:1077100045112411AA2A482A0722892AC619E310EA
:10772000692AE72141002411892A45112411892A57
:10773000A2084100C6194822E3082822CA320822BA
:10774000692A0722E721692A0411892A892A031153
:107750000311892A651920000000200024110B3331
:10776000692AE72107220B332B338619A619A92A88
:107770000722E721A619A208C619892A8208410012
:10778000072228226100E308692A651920002411D4
:10779000AD3BCA322722AA2A07224100000000007E
:1077A00000000000000000000000000000000000D9
:1077B00000000000000000000000000000000000C9
:1077C00000000000000000000000000000000000B9
:1077D00000000000000000000000000000000000A9
:1077E0000000000000000000000000000000000099
:1077F0000000000000000000000000000000000089
:107800000000000000000000000000000000000078
:107810000000000000000000000000000000000068
:107820000000000000000000000000000000000058
:107830000000000000000000000000000000000048
:107840000000000000000000000000000000000038
:107850000000000000000000000000000000000028
:107860000000000000000000000000000000000018
:107870000000000000000000000000000000000008
:10788000000000000000000000000311441141004E
:1078900000002000241104116100031104112000D4
:1078A00041004411E308C208441181080000C308E4
:1078B00024116108820865190722E721041141009B
:1078C00081086519E721C61965198208A208A61959
:1078D0000722C7196519A208E308C619C621C619E7
:1078E0000722CA2A282265190311200061002411E9
:1078F000A20841002411E7210722651982086100CE
:107900002411E310200082084511A20882086511A5
:1079100041002000E308241161000411072207221E
:107920008519A208E30844118208441103112000BC
:1079300081084511A2080000000000008208861995
:10794000E721C721C7210722AA2A692AA2086511AF
:107950000722072265196108E3084411410020004D
:1079600004110411200061082411A2082000241130
:107970006C3B482A0722A619A2080000000000005C
:1079800000000000000000000000000000000000F7
:1079900000000000000000000000000000000000E7
:1079A00000000000000000000000000000000000D7
:1079B00000000000000000000000000000000000C7
:1079C00000000000000000000000000000000000B7
:1079D00000000000000000000000000000000000A7
:1079E0000000000000000000000000000000000097
:1079F0000000000000000000000000000000000087
:107A00000000000000000000000000000000000076
:107A10000000000000000000000000000000000066
:107A20000000000000000000000000000000000056
:107A30000000000000000000000000000000000046
:107A40000000000000000000000000000000000036
:107A50000000000000000000000000000000000026
:107A600000000000000000000000000020000000F6
:107A700000000000200000000000000020000000C6
:107A80000000200020000000200000000000000096
:107A90002000000000002000410041000000000024
:107AA00000002000410041002000000000002000F4
:107AB0004100410020000000200020004100410062
:107AC0008208E721E7218108000000000000200073
